{
  "contractName": "ERC721Connector",
  "abi": [
    {
      "inputs": [
        {
          "internalType": "string",
          "name": "name",
          "type": "string"
        },
        {
          "internalType": "string",
          "name": "symbol",
          "type": "string"
        }
      ],
      "stateMutability": "nonpayable",
      "type": "constructor"
    },
    {
      "anonymous": false,
      "inputs": [
        {
          "indexed": true,
          "internalType": "address",
          "name": "_owner",
          "type": "address"
        },
        {
          "indexed": true,
          "internalType": "address",
          "name": "_approved",
          "type": "address"
        },
        {
          "indexed": true,
          "internalType": "uint256",
          "name": "_tokenId",
          "type": "uint256"
        }
      ],
      "name": "Approval",
      "type": "event"
    },
    {
      "anonymous": false,
      "inputs": [
        {
          "indexed": true,
          "internalType": "address",
          "name": "_owner",
          "type": "address"
        },
        {
          "indexed": true,
          "internalType": "address",
          "name": "_operator",
          "type": "address"
        },
        {
          "indexed": false,
          "internalType": "bool",
          "name": "_approved",
          "type": "bool"
        }
      ],
      "name": "ApprovalForAll",
      "type": "event"
    },
    {
      "anonymous": false,
      "inputs": [
        {
          "indexed": true,
          "internalType": "address",
          "name": "_from",
          "type": "address"
        },
        {
          "indexed": true,
          "internalType": "address",
          "name": "_to",
          "type": "address"
        },
        {
          "indexed": true,
          "internalType": "uint256",
          "name": "_tokenId",
          "type": "uint256"
        }
      ],
      "name": "Transfer",
      "type": "event"
    },
    {
      "inputs": [
        {
          "internalType": "address",
          "name": "_to",
          "type": "address"
        },
        {
          "internalType": "uint256",
          "name": "_tokenId",
          "type": "uint256"
        }
      ],
      "name": "approve",
      "outputs": [],
      "stateMutability": "nonpayable",
      "type": "function"
    },
    {
      "inputs": [
        {
          "internalType": "address",
          "name": "_owner",
          "type": "address"
        }
      ],
      "name": "balanceOf",
      "outputs": [
        {
          "internalType": "uint256",
          "name": "",
          "type": "uint256"
        }
      ],
      "stateMutability": "view",
      "type": "function"
    },
    {
      "inputs": [
        {
          "internalType": "uint256",
          "name": "tokenId",
          "type": "uint256"
        }
      ],
      "name": "getApproved",
      "outputs": [
        {
          "internalType": "address",
          "name": "",
          "type": "address"
        }
      ],
      "stateMutability": "view",
      "type": "function"
    },
    {
      "inputs": [
        {
          "internalType": "address",
          "name": "owner",
          "type": "address"
        },
        {
          "internalType": "address",
          "name": "operator",
          "type": "address"
        }
      ],
      "name": "isApprovedForAll",
      "outputs": [
        {
          "internalType": "bool",
          "name": "",
          "type": "bool"
        }
      ],
      "stateMutability": "view",
      "type": "function"
    },
    {
      "inputs": [],
      "name": "name",
      "outputs": [
        {
          "internalType": "string",
          "name": "",
          "type": "string"
        }
      ],
      "stateMutability": "view",
      "type": "function"
    },
    {
      "inputs": [
        {
          "internalType": "uint256",
          "name": "_tokenId",
          "type": "uint256"
        }
      ],
      "name": "ownerOf",
      "outputs": [
        {
          "internalType": "address",
          "name": "",
          "type": "address"
        }
      ],
      "stateMutability": "view",
      "type": "function"
    },
    {
      "inputs": [
        {
          "internalType": "address",
          "name": "from",
          "type": "address"
        },
        {
          "internalType": "address",
          "name": "to",
          "type": "address"
        },
        {
          "internalType": "uint256",
          "name": "tokenId",
          "type": "uint256"
        }
      ],
      "name": "safeTransferFrom",
      "outputs": [],
      "stateMutability": "nonpayable",
      "type": "function"
    },
    {
      "inputs": [
        {
          "internalType": "address",
          "name": "from",
          "type": "address"
        },
        {
          "internalType": "address",
          "name": "to",
          "type": "address"
        },
        {
          "internalType": "uint256",
          "name": "tokenId",
          "type": "uint256"
        },
        {
          "internalType": "bytes",
          "name": "_data",
          "type": "bytes"
        }
      ],
      "name": "safeTransferFrom",
      "outputs": [],
      "stateMutability": "nonpayable",
      "type": "function"
    },
    {
      "inputs": [
        {
          "internalType": "address",
          "name": "operator",
          "type": "address"
        },
        {
          "internalType": "bool",
          "name": "approved",
          "type": "bool"
        }
      ],
      "name": "setApprovalForAll",
      "outputs": [],
      "stateMutability": "nonpayable",
      "type": "function"
    },
    {
      "inputs": [
        {
          "internalType": "bytes4",
          "name": "interfaceID",
          "type": "bytes4"
        }
      ],
      "name": "supportsInterface",
      "outputs": [
        {
          "internalType": "bool",
          "name": "",
          "type": "bool"
        }
      ],
      "stateMutability": "view",
      "type": "function"
    },
    {
      "inputs": [],
      "name": "symbol",
      "outputs": [
        {
          "internalType": "string",
          "name": "",
          "type": "string"
        }
      ],
      "stateMutability": "view",
      "type": "function"
    },
    {
      "inputs": [
        {
          "internalType": "uint256",
          "name": "_index",
          "type": "uint256"
        }
      ],
      "name": "tokenByIndex",
      "outputs": [
        {
          "internalType": "uint256",
          "name": "",
          "type": "uint256"
        }
      ],
      "stateMutability": "view",
      "type": "function"
    },
    {
      "inputs": [
        {
          "internalType": "uint256",
          "name": "tokenId",
          "type": "uint256"
        }
      ],
      "name": "tokenCost",
      "outputs": [
        {
          "internalType": "string",
          "name": "",
          "type": "string"
        }
      ],
      "stateMutability": "view",
      "type": "function"
    },
    {
      "inputs": [
        {
          "internalType": "uint256",
          "name": "tokenId",
          "type": "uint256"
        }
      ],
      "name": "tokenDescription",
      "outputs": [
        {
          "internalType": "string",
          "name": "",
          "type": "string"
        }
      ],
      "stateMutability": "view",
      "type": "function"
    },
    {
      "inputs": [
        {
          "internalType": "uint256",
          "name": "tokenId",
          "type": "uint256"
        }
      ],
      "name": "tokenName",
      "outputs": [
        {
          "internalType": "string",
          "name": "",
          "type": "string"
        }
      ],
      "stateMutability": "view",
      "type": "function"
    },
    {
      "inputs": [
        {
          "internalType": "address",
          "name": "_owner",
          "type": "address"
        },
        {
          "internalType": "uint256",
          "name": "_index",
          "type": "uint256"
        }
      ],
      "name": "tokenOfOwnerByIndex",
      "outputs": [
        {
          "internalType": "uint256",
          "name": "",
          "type": "uint256"
        }
      ],
      "stateMutability": "view",
      "type": "function"
    },
    {
      "inputs": [
        {
          "internalType": "uint256",
          "name": "tokenId",
          "type": "uint256"
        }
      ],
      "name": "tokenURI",
      "outputs": [
        {
          "internalType": "string",
          "name": "",
          "type": "string"
        }
      ],
      "stateMutability": "view",
      "type": "function"
    },
    {
      "inputs": [],
      "name": "totalSupply",
      "outputs": [
        {
          "internalType": "uint256",
          "name": "",
          "type": "uint256"
        }
      ],
      "stateMutability": "view",
      "type": "function"
    },
    {
      "inputs": [
        {
          "internalType": "address",
          "name": "_from",
          "type": "address"
        },
        {
          "internalType": "address",
          "name": "_to",
          "type": "address"
        },
        {
          "internalType": "uint256",
          "name": "_tokenId",
          "type": "uint256"
        }
      ],
      "name": "transferFrom",
      "outputs": [],
      "stateMutability": "nonpayable",
      "type": "function"
    }
  ],
  "bytecode": "0x60806040523480156200001157600080fd5b5060405162003354380380620033548339818101604052810190620000379190620005d5565b81816200006a7f01ffc9a7a5cef8baa21ed3c5c0d7e23accb804b619e9333b597f47a0d84076e2620002b160201b60201c565b81600190805190602001906200008292919062000388565b5080600290805190602001906200009b92919062000388565b50620001117ffe1fe95acebadd5c664ee41aecf527d79ff82e329abb64857d6e0d40371737b17f13b182f4c0e5b2efbac0efe6cf6d756c8b89f4b79c5707a043ed9ea740574ee97f7feaf19471f34a12a7eaf32d5f3090aa2260ea8624dc8a138e74e0bf0f6230761818620002b160201b60201c565b5050620002347fe0c9b09697cad3aa3f2bcb7fdd781becaefa478990b24e83d3bfdb65623d77537f5af227006b8981efabb10af200ab71f08976cbce54b4c59ae5c97811d19a398c7f90dba0bef8387ab29f95a1abead857c8ccc338f1038f6fa159fa78fd18aff9f77f8c51fd5fcf1f456ec4eb0f32f68d83471264fe082fac12bcbfd2fa4be9eed6c77f22c82707ba960a14c7592ffb6b8cfaa073fed0048a84cc7fa41f6b5bd8e7f2e47f1cf138a85b0e62e7e98a8302d9c9eb9460c8ba52e5da3c28daff2b626089dd8d807f3a6eb71757dfc6e784c1459d26270140c2c147d95ca985c80026fc5301c3eca17f8a7e378434598edc36d108689a030cbc9d7d465de4f74c71bae1028eed6a881b1818181818181818620002b160201b60201c565b620002a97f8230223f691b981717299fae9549350a0d894555723531f02108b1f522c1a7977f6da5e1284143cdd2d15038a59bde3be031250f00291d64494c12d967b3a4e0c37fc53637662700e6c65104059db8bba34439e0c32483ab7c34e3ccae52c73954951818620002b160201b60201c565b505062000767565b63ffffffff60e01b817bffffffffffffffffffffffffffffffffffffffffffffffffffffffff1916036200031c576040517f08c379a00000000000000000000000000000000000000000000000000000000081526004016200031390620006e1565b60405180910390fd5b6001600080837bffffffffffffffffffffffffffffffffffffffffffffffffffffffff19167bffffffffffffffffffffffffffffffffffffffffffffffffffffffff1916815260200190815260200160002060006101000a81548160ff02191690831515021790555050565b828054620003969062000732565b90600052602060002090601f016020900481019282620003ba576000855562000406565b82601f10620003d557805160ff191683800117855562000406565b8280016001018555821562000406579182015b8281111562000405578251825591602001919060010190620003e8565b5b50905062000415919062000419565b5090565b5b80821115620004345760008160009055506001016200041a565b5090565b6000604051905090565b600080fd5b600080fd5b600080fd5b600080fd5b6000601f19601f8301169050919050565b7f4e487b7100000000000000000000000000000000000000000000000000000000600052604160045260246000fd5b620004a18262000456565b810181811067ffffffffffffffff82111715620004c357620004c262000467565b5b80604052505050565b6000620004d862000438565b9050620004e6828262000496565b919050565b600067ffffffffffffffff82111562000509576200050862000467565b5b620005148262000456565b9050602081019050919050565b60005b838110156200054157808201518184015260208101905062000524565b8381111562000551576000848401525b50505050565b60006200056e6200056884620004eb565b620004cc565b9050828152602081018484840111156200058d576200058c62000451565b5b6200059a84828562000521565b509392505050565b600082601f830112620005ba57620005b96200044c565b5b8151620005cc84826020860162000557565b91505092915050565b60008060408385031215620005ef57620005ee62000442565b5b600083015167ffffffffffffffff81111562000610576200060f62000447565b5b6200061e85828601620005a2565b925050602083015167ffffffffffffffff81111562000642576200064162000447565b5b6200065085828601620005a2565b9150509250929050565b600082825260208201905092915050565b7f4552433136353a20496e76616c696420696e746572666163652072657175657360008201527f7421000000000000000000000000000000000000000000000000000000000000602082015250565b6000620006c96022836200065a565b9150620006d6826200066b565b604082019050919050565b60006020820190508181036000830152620006fc81620006ba565b9050919050565b7f4e487b7100000000000000000000000000000000000000000000000000000000600052602260045260246000fd5b600060028204905060018216806200074b57607f821691505b60208210810362000761576200076062000703565b5b50919050565b612bdd80620007776000396000f3fe608060405234801561001057600080fd5b50600436106101215760003560e01c80636352211e116100ad578063a22cb46511610071578063a22cb46514610354578063b88d4fde14610370578063c87b56dd1461038c578063e725f877146103bc578063e985e9c5146103ec57610121565b80636352211e1461027657806370a08231146102a657806395d89b41146102d65780639fed62c1146102f4578063a0c6d5371461032457610121565b806318160ddd116100f457806318160ddd146101c057806323b872dd146101de5780632f745c59146101fa57806342842e0e1461022a5780634f6ccce71461024657610121565b806301ffc9a71461012657806306fdde0314610156578063081812fc14610174578063095ea7b3146101a4575b600080fd5b610140600480360381019061013b91906119ac565b61041c565b60405161014d91906119f4565b60405180910390f35b61015e610483565b60405161016b9190611aa8565b60405180910390f35b61018e60048036038101906101899190611b00565b610515565b60405161019b9190611b6e565b60405180910390f35b6101be60048036038101906101b99190611bb5565b61059a565b005b6101c86107a4565b6040516101d59190611c04565b60405180910390f35b6101f860048036038101906101f39190611c1f565b6107b1565b005b610214600480360381019061020f9190611bb5565b61080a565b6040516102219190611c04565b60405180910390f35b610244600480360381019061023f9190611c1f565b6108ba565b005b610260600480360381019061025b9190611b00565b6108da565b60405161026d9190611c04565b60405180910390f35b610290600480360381019061028b9190611b00565b61094b565b60405161029d9190611b6e565b60405180910390f35b6102c060048036038101906102bb9190611c72565b6109fc565b6040516102cd9190611c04565b60405180910390f35b6102de610aba565b6040516102eb9190611aa8565b60405180910390f35b61030e60048036038101906103099190611b00565b610b4c565b60405161031b9190611aa8565b60405180910390f35b61033e60048036038101906103399190611b00565b610bf1565b60405161034b9190611aa8565b60405180910390f35b61036e60048036038101906103699190611ccb565b610c96565b005b61038a60048036038101906103859190611e40565b610ca5565b005b6103a660048036038101906103a19190611b00565b610d00565b6040516103b39190611aa8565b60405180910390f35b6103d660048036038101906103d19190611b00565b610d5f565b6040516103e39190611aa8565b60405180910390f35b61040660048036038101906104019190611ec3565b610e04565b60405161041391906119f4565b60405180910390f35b6000806000837bffffffffffffffffffffffffffffffffffffffffffffffffffffffff19167bffffffffffffffffffffffffffffffffffffffffffffffffffffffff1916815260200190815260200160002060009054906101000a900460ff169050919050565b60606001805461049290611f32565b80601f01602080910402602001604051908101604052809291908181526020018280546104be90611f32565b801561050b5780601f106104e05761010080835404028352916020019161050b565b820191906000526020600020905b8154815290600101906020018083116104ee57829003601f168201915b5050505050905090565b600061052082610e98565b61055f576040517f08c379a000000000000000000000000000000000000000000000000000000000815260040161055690611fd5565b60405180910390fd5b6008600083815260200190815260200160002060009054906101000a900473ffffffffffffffffffffffffffffffffffffffff169050919050565b60006105a58261094b565b90508073ffffffffffffffffffffffffffffffffffffffff168373ffffffffffffffffffffffffffffffffffffffff1603610615576040517f08c379a000000000000000000000000000000000000000000000000000000000815260040161060c90612067565b60405180910390fd5b3373ffffffffffffffffffffffffffffffffffffffff168173ffffffffffffffffffffffffffffffffffffffff1614610683576040517f08c379a000000000000000000000000000000000000000000000000000000000815260040161067a906120f9565b60405180910390fd5b600073ffffffffffffffffffffffffffffffffffffffff168373ffffffffffffffffffffffffffffffffffffffff16036106f2576040517f08c379a00000000000000000000000000000000000000000000000000000000081526004016106e99061218b565b60405180910390fd5b826008600084815260200190815260200160002060006101000a81548173ffffffffffffffffffffffffffffffffffffffff021916908373ffffffffffffffffffffffffffffffffffffffff160217905550818373ffffffffffffffffffffffffffffffffffffffff168273ffffffffffffffffffffffffffffffffffffffff167f8c5be1e5ebec7d5bd14f71427d1e84f3dd0314c0f7b2291e5b200ac8c7c3b92560405160405180910390a4505050565b6000600a80549050905090565b6107bb3382610f0a565b6107fa576040517f08c379a00000000000000000000000000000000000000000000000000000000081526004016107f19061221d565b60405180910390fd5b610805838383610fe8565b505050565b6000610815836109fc565b8210610856576040517f08c379a000000000000000000000000000000000000000000000000000000000815260040161084d906122af565b60405180910390fd5b600c60008473ffffffffffffffffffffffffffffffffffffffff1673ffffffffffffffffffffffffffffffffffffffff16815260200190815260200160002082815481106108a7576108a66122cf565b5b9060005260206000200154905092915050565b6108d583838360405180602001604052806000815250610ca5565b505050565b60006108e46107a4565b8210610925576040517f08c379a000000000000000000000000000000000000000000000000000000000815260040161091c90612370565b60405180910390fd5b600a8281548110610939576109386122cf565b5b90600052602060002001549050919050565b6000806006600084815260200190815260200160002060009054906101000a900473ffffffffffffffffffffffffffffffffffffffff169050600073ffffffffffffffffffffffffffffffffffffffff168173ffffffffffffffffffffffffffffffffffffffff16036109f3576040517f08c379a00000000000000000000000000000000000000000000000000000000081526004016109ea90612402565b60405180910390fd5b80915050919050565b60008073ffffffffffffffffffffffffffffffffffffffff168273ffffffffffffffffffffffffffffffffffffffff1603610a6c576040517f08c379a0000000000000000000000000000000000000000000000000000000008152600401610a6390612494565b60405180910390fd5b610ab3600760008473ffffffffffffffffffffffffffffffffffffffff1673ffffffffffffffffffffffffffffffffffffffff16815260200190815260200160002061122e565b9050919050565b606060028054610ac990611f32565b80601f0160208091040260200160405190810160405280929190818152602001828054610af590611f32565b8015610b425780601f10610b1757610100808354040283529160200191610b42565b820191906000526020600020905b815481529060010190602001808311610b2557829003601f168201915b5050505050905090565b6060600560008381526020019081526020016000208054610b6c90611f32565b80601f0160208091040260200160405190810160405280929190818152602001828054610b9890611f32565b8015610be55780601f10610bba57610100808354040283529160200191610be5565b820191906000526020600020905b815481529060010190602001808311610bc857829003601f168201915b50505050509050919050565b6060600460008381526020019081526020016000208054610c1190611f32565b80601f0160208091040260200160405190810160405280929190818152602001828054610c3d90611f32565b8015610c8a5780601f10610c5f57610100808354040283529160200191610c8a565b820191906000526020600020905b815481529060010190602001808311610c6d57829003601f168201915b50505050509050919050565b610ca133838361123c565b5050565b610caf33836113a8565b610cee576040517f08c379a0000000000000000000000000000000000000000000000000000000008152600401610ce590612526565b60405180910390fd5b610cfa84848484611486565b50505050565b60606000610d0c6114e2565b90506000815111610d2c5760405180602001604052806000815250610d57565b80610d36846114f9565b604051602001610d47929190612582565b6040516020818303038152906040525b915050919050565b6060600360008381526020019081526020016000208054610d7f90611f32565b80601f0160208091040260200160405190810160405280929190818152602001828054610dab90611f32565b8015610df85780601f10610dcd57610100808354040283529160200191610df8565b820191906000526020600020905b815481529060010190602001808311610ddb57829003601f168201915b50505050509050919050565b6000600960008473ffffffffffffffffffffffffffffffffffffffff1673ffffffffffffffffffffffffffffffffffffffff16815260200190815260200160002060008373ffffffffffffffffffffffffffffffffffffffff1673ffffffffffffffffffffffffffffffffffffffff16815260200190815260200160002060009054906101000a900460ff16905092915050565b6000806006600084815260200190815260200160002060009054906101000a900473ffffffffffffffffffffffffffffffffffffffff169050600073ffffffffffffffffffffffffffffffffffffffff168173ffffffffffffffffffffffffffffffffffffffff161415915050919050565b6000610f1582610e98565b610f54576040517f08c379a0000000000000000000000000000000000000000000000000000000008152600401610f4b906125f2565b60405180910390fd5b6000610f5f8361094b565b90508073ffffffffffffffffffffffffffffffffffffffff168473ffffffffffffffffffffffffffffffffffffffff161480610fce57508373ffffffffffffffffffffffffffffffffffffffff16610fb684610515565b73ffffffffffffffffffffffffffffffffffffffff16145b80610fdf5750610fde8185610e04565b5b91505092915050565b8273ffffffffffffffffffffffffffffffffffffffff166110088261094b565b73ffffffffffffffffffffffffffffffffffffffff161461105e576040517f08c379a000000000000000000000000000000000000000000000000000000000815260040161105590612684565b60405180910390fd5b600073ffffffffffffffffffffffffffffffffffffffff168273ffffffffffffffffffffffffffffffffffffffff16036110cd576040517f08c379a00000000000000000000000000000000000000000000000000000000081526004016110c490612716565b60405180910390fd5b6110d8838383611659565b6110e360008261165e565b61112a600760008573ffffffffffffffffffffffffffffffffffffffff1673ffffffffffffffffffffffffffffffffffffffff168152602001908152602001600020611717565b611171600760008473ffffffffffffffffffffffffffffffffffffffff1673ffffffffffffffffffffffffffffffffffffffff16815260200190815260200160002061173a565b816006600083815260200190815260200160002060006101000a81548173ffffffffffffffffffffffffffffffffffffffff021916908373ffffffffffffffffffffffffffffffffffffffff160217905550808273ffffffffffffffffffffffffffffffffffffffff168473ffffffffffffffffffffffffffffffffffffffff167fddf252ad1be2c89b69c2b068fc378daa952ba7f163c4a11628f55a4df523b3ef60405160405180910390a4611229838383611759565b505050565b600081600001549050919050565b8173ffffffffffffffffffffffffffffffffffffffff168373ffffffffffffffffffffffffffffffffffffffff16036112aa576040517f08c379a00000000000000000000000000000000000000000000000000000000081526004016112a190612782565b60405180910390fd5b80600960008573ffffffffffffffffffffffffffffffffffffffff1673ffffffffffffffffffffffffffffffffffffffff16815260200190815260200160002060008473ffffffffffffffffffffffffffffffffffffffff1673ffffffffffffffffffffffffffffffffffffffff16815260200190815260200160002060006101000a81548160ff0219169083151502179055508173ffffffffffffffffffffffffffffffffffffffff168373ffffffffffffffffffffffffffffffffffffffff167f17307eab39ab6107e8899845ad3d59bd9653f200f220920489ca2b5937696c318360405161139b91906119f4565b60405180910390a3505050565b60006113b382610e98565b6113f2576040517f08c379a00000000000000000000000000000000000000000000000000000000081526004016113e990612814565b60405180910390fd5b60006113fd8361094b565b90508073ffffffffffffffffffffffffffffffffffffffff168473ffffffffffffffffffffffffffffffffffffffff16148061146c57508373ffffffffffffffffffffffffffffffffffffffff1661145484610515565b73ffffffffffffffffffffffffffffffffffffffff16145b8061147d575061147c8185610e04565b5b91505092915050565b611491848484610fe8565b61149d8484848461175e565b6114dc576040517f08c379a00000000000000000000000000000000000000000000000000000000081526004016114d3906128a6565b60405180910390fd5b50505050565b606060405180602001604052806000815250905090565b606060008203611540576040518060400160405280600181526020017f30000000000000000000000000000000000000000000000000000000000000008152509050611654565b600082905060005b6000821461157257808061155b906128f5565b915050600a8261156b919061296c565b9150611548565b60008167ffffffffffffffff81111561158e5761158d611d15565b5b6040519080825280601f01601f1916602001820160405280156115c05781602001600182028036833780820191505090505b5090505b6000851461164d576001826115d9919061299d565b9150600a856115e891906129d1565b60306115f49190612a02565b60f81b81838151811061160a576116096122cf565b5b60200101907effffffffffffffffffffffffffffffffffffffffffffffffffffffffffffff1916908160001a905350600a85611646919061296c565b94506115c4565b8093505050505b919050565b505050565b816008600083815260200190815260200160002060006101000a81548173ffffffffffffffffffffffffffffffffffffffff021916908373ffffffffffffffffffffffffffffffffffffffff160217905550808273ffffffffffffffffffffffffffffffffffffffff166116d18361094b565b73ffffffffffffffffffffffffffffffffffffffff167f8c5be1e5ebec7d5bd14f71427d1e84f3dd0314c0f7b2291e5b200ac8c7c3b92560405160405180910390a45050565b61172f600182600001546118c890919063ffffffff16565b816000018190555050565b600181600001600082825461174f9190612a02565b9250508190555050565b505050565b600061176984611927565b156118bb578373ffffffffffffffffffffffffffffffffffffffff1663150b7a02338786866040518563ffffffff1660e01b81526004016117ad9493929190612aad565b6020604051808303816000875af19250505080156117e957506040513d601f19601f820116820180604052508101906117e69190612b0e565b60015b61186b573d8060008114611819576040519150601f19603f3d011682016040523d82523d6000602084013e61181e565b606091505b506000815103611863576040517f08c379a000000000000000000000000000000000000000000000000000000000815260040161185a906128a6565b60405180910390fd5b805181602001fd5b63150b7a0260e01b7bffffffffffffffffffffffffffffffffffffffffffffffffffffffff1916817bffffffffffffffffffffffffffffffffffffffffffffffffffffffff1916149150506118c0565b600190505b949350505050565b60008282111561190d576040517f08c379a000000000000000000000000000000000000000000000000000000000815260040161190490612b87565b60405180910390fd5b6000828461191b919061299d565b90508091505092915050565b600080823b905060008163ffffffff1611915050919050565b6000604051905090565b600080fd5b600080fd5b60007fffffffff0000000000000000000000000000000000000000000000000000000082169050919050565b61198981611954565b811461199457600080fd5b50565b6000813590506119a681611980565b92915050565b6000602082840312156119c2576119c161194a565b5b60006119d084828501611997565b91505092915050565b60008115159050919050565b6119ee816119d9565b82525050565b6000602082019050611a0960008301846119e5565b92915050565b600081519050919050565b600082825260208201905092915050565b60005b83811015611a49578082015181840152602081019050611a2e565b83811115611a58576000848401525b50505050565b6000601f19601f8301169050919050565b6000611a7a82611a0f565b611a848185611a1a565b9350611a94818560208601611a2b565b611a9d81611a5e565b840191505092915050565b60006020820190508181036000830152611ac28184611a6f565b905092915050565b6000819050919050565b611add81611aca565b8114611ae857600080fd5b50565b600081359050611afa81611ad4565b92915050565b600060208284031215611b1657611b1561194a565b5b6000611b2484828501611aeb565b91505092915050565b600073ffffffffffffffffffffffffffffffffffffffff82169050919050565b6000611b5882611b2d565b9050919050565b611b6881611b4d565b82525050565b6000602082019050611b836000830184611b5f565b92915050565b611b9281611b4d565b8114611b9d57600080fd5b50565b600081359050611baf81611b89565b92915050565b60008060408385031215611bcc57611bcb61194a565b5b6000611bda85828601611ba0565b9250506020611beb85828601611aeb565b9150509250929050565b611bfe81611aca565b82525050565b6000602082019050611c196000830184611bf5565b92915050565b600080600060608486031215611c3857611c3761194a565b5b6000611c4686828701611ba0565b9350506020611c5786828701611ba0565b9250506040611c6886828701611aeb565b9150509250925092565b600060208284031215611c8857611c8761194a565b5b6000611c9684828501611ba0565b91505092915050565b611ca8816119d9565b8114611cb357600080fd5b50565b600081359050611cc581611c9f565b92915050565b60008060408385031215611ce257611ce161194a565b5b6000611cf085828601611ba0565b9250506020611d0185828601611cb6565b9150509250929050565b600080fd5b600080fd5b7f4e487b7100000000000000000000000000000000000000000000000000000000600052604160045260246000fd5b611d4d82611a5e565b810181811067ffffffffffffffff82111715611d6c57611d6b611d15565b5b80604052505050565b6000611d7f611940565b9050611d8b8282611d44565b919050565b600067ffffffffffffffff821115611dab57611daa611d15565b5b611db482611a5e565b9050602081019050919050565b82818337600083830152505050565b6000611de3611dde84611d90565b611d75565b905082815260208101848484011115611dff57611dfe611d10565b5b611e0a848285611dc1565b509392505050565b600082601f830112611e2757611e26611d0b565b5b8135611e37848260208601611dd0565b91505092915050565b60008060008060808587031215611e5a57611e5961194a565b5b6000611e6887828801611ba0565b9450506020611e7987828801611ba0565b9350506040611e8a87828801611aeb565b925050606085013567ffffffffffffffff811115611eab57611eaa61194f565b5b611eb787828801611e12565b91505092959194509250565b60008060408385031215611eda57611ed961194a565b5b6000611ee885828601611ba0565b9250506020611ef985828601611ba0565b9150509250929050565b7f4e487b7100000000000000000000000000000000000000000000000000000000600052602260045260246000fd5b60006002820490506001821680611f4a57607f821691505b602082108103611f5d57611f5c611f03565b5b50919050565b7f4552433732313a20617070726f76656420717565727920666f72206e6f6e657860008201527f697374656e7420746f6b656e0000000000000000000000000000000000000000602082015250565b6000611fbf602c83611a1a565b9150611fca82611f63565b604082019050919050565b60006020820190508181036000830152611fee81611fb2565b9050919050565b7f4552433732313a20417070726f76616c20746f2063757272656e74206f776e6560008201527f7221000000000000000000000000000000000000000000000000000000000000602082015250565b6000612051602283611a1a565b915061205c82611ff5565b604082019050919050565b6000602082019050818103600083015261208081612044565b9050919050565b7f4552433732313a20547279696e6720746f207472616e66657220746f6b656e2060008201527f7768696368206f776e657220646f6573206e6f74206f776e2100000000000000602082015250565b60006120e3603983611a1a565b91506120ee82612087565b604082019050919050565b60006020820190508181036000830152612112816120d6565b9050919050565b7f4552433732313a2043616e277420617070726f766520746f6b656e20746f207a60008201527f65726f2061646472657373000000000000000000000000000000000000000000602082015250565b6000612175602b83611a1a565b915061218082612119565b604082019050919050565b600060208201905081810360008301526121a481612168565b9050919050565b7f4552433732313a20546f6b656e20646f6573206e6f742062656c6f6e6720746f60008201527f207468652063757272656e742063616c6c657221000000000000000000000000602082015250565b6000612207603483611a1a565b9150612212826121ab565b604082019050919050565b60006020820190508181036000830152612236816121fa565b9050919050565b7f4552433732313a204f776e657220696e646578206973206f7574206f6620626f60008201527f756e647321000000000000000000000000000000000000000000000000000000602082015250565b6000612299602583611a1a565b91506122a48261223d565b604082019050919050565b600060208201905081810360008301526122c88161228c565b9050919050565b7f4e487b7100000000000000000000000000000000000000000000000000000000600052603260045260246000fd5b7f4552433732313a20476c6f62616c20746f6b656e20696e646578206973206f7560008201527f74206f6620626f756e6473210000000000000000000000000000000000000000602082015250565b600061235a602c83611a1a565b9150612365826122fe565b604082019050919050565b600060208201905081810360008301526123898161234d565b9050919050565b7f4552433732313a20746f6b656e20717565727920666f72206e6f6e2d6578697360008201527f74656e74206f776e65722e000000000000000000000000000000000000000000602082015250565b60006123ec602b83611a1a565b91506123f782612390565b604082019050919050565b6000602082019050818103600083015261241b816123df565b9050919050565b7f4552433732313a206f776e657220717565727920666f72206e6f6e2d6578697360008201527f74656e7420746f6b656e2e000000000000000000000000000000000000000000602082015250565b600061247e602b83611a1a565b915061248982612422565b604082019050919050565b600060208201905081810360008301526124ad81612471565b9050919050565b7f4552433732313a207472616e736665722063616c6c6572206973206e6f74206f60008201527f776e6572206e6f7220617070726f766564000000000000000000000000000000602082015250565b6000612510603183611a1a565b915061251b826124b4565b604082019050919050565b6000602082019050818103600083015261253f81612503565b9050919050565b600081905092915050565b600061255c82611a0f565b6125668185612546565b9350612576818560208601611a2b565b80840191505092915050565b600061258e8285612551565b915061259a8284612551565b91508190509392505050565b7f4552433732313a20546f6b656e20646f6573206e6f7420657869737421000000600082015250565b60006125dc601d83611a1a565b91506125e7826125a6565b602082019050919050565b6000602082019050818103600083015261260b816125cf565b9050919050565b7f4552433732313a207472616e736665722066726f6d20696e636f72726563742060008201527f6f776e6572000000000000000000000000000000000000000000000000000000602082015250565b600061266e602583611a1a565b915061267982612612565b604082019050919050565b6000602082019050818103600083015261269d81612661565b9050919050565b7f4552433732313a207472616e7366657220746f20746865207a65726f2061646460008201527f7265737300000000000000000000000000000000000000000000000000000000602082015250565b6000612700602483611a1a565b915061270b826126a4565b604082019050919050565b6000602082019050818103600083015261272f816126f3565b9050919050565b7f4552433732313a20617070726f766520746f2063616c6c657200000000000000600082015250565b600061276c601983611a1a565b915061277782612736565b602082019050919050565b6000602082019050818103600083015261279b8161275f565b9050919050565b7f4552433732313a206f70657261746f7220717565727920666f72206e6f6e657860008201527f697374656e7420746f6b656e0000000000000000000000000000000000000000602082015250565b60006127fe602c83611a1a565b9150612809826127a2565b604082019050919050565b6000602082019050818103600083015261282d816127f1565b9050919050565b7f4552433732313a207472616e7366657220746f206e6f6e20455243373231526560008201527f63656976657220696d706c656d656e7465720000000000000000000000000000602082015250565b6000612890603283611a1a565b915061289b82612834565b604082019050919050565b600060208201905081810360008301526128bf81612883565b9050919050565b7f4e487b7100000000000000000000000000000000000000000000000000000000600052601160045260246000fd5b600061290082611aca565b91507fffffffffffffffffffffffffffffffffffffffffffffffffffffffffffffffff8203612932576129316128c6565b5b600182019050919050565b7f4e487b7100000000000000000000000000000000000000000000000000000000600052601260045260246000fd5b600061297782611aca565b915061298283611aca565b9250826129925761299161293d565b5b828204905092915050565b60006129a882611aca565b91506129b383611aca565b9250828210156129c6576129c56128c6565b5b828203905092915050565b60006129dc82611aca565b91506129e783611aca565b9250826129f7576129f661293d565b5b828206905092915050565b6000612a0d82611aca565b9150612a1883611aca565b9250827fffffffffffffffffffffffffffffffffffffffffffffffffffffffffffffffff03821115612a4d57612a4c6128c6565b5b828201905092915050565b600081519050919050565b600082825260208201905092915050565b6000612a7f82612a58565b612a898185612a63565b9350612a99818560208601611a2b565b612aa281611a5e565b840191505092915050565b6000608082019050612ac26000830187611b5f565b612acf6020830186611b5f565b612adc6040830185611bf5565b8181036060830152612aee8184612a74565b905095945050505050565b600081519050612b0881611980565b92915050565b600060208284031215612b2457612b2361194a565b5b6000612b3284828501612af9565b91505092915050565b7f536166654d6174683a205375627472616374696f6e206f766572666c6f770000600082015250565b6000612b71601e83611a1a565b9150612b7c82612b3b565b602082019050919050565b60006020820190508181036000830152612ba081612b64565b905091905056fea2646970667358221220962de6618f5f1486b016d5403841741814733d4d4657193e3dae37b4296ebf2464736f6c634300080d0033",
  "immutableReferences": {},
  "source": "// SPDX-License-Identifier: MIT\n\npragma solidity ^0.8.0;\n\nimport './ERC721Metadata.sol';\nimport './ERC721Enumerable.sol';\n\ncontract ERC721Connector is ERC721Metadata, ERC721Enumerable {\n\n    constructor(string memory name, string memory symbol) ERC721Metadata(name, symbol){\n        \n    }\n}",
  "sourcePath": "/home/m9/Documents/nft-marketplace-starter-kit/src/contracts/ERC721Connector.sol",
  "compiler": {
    "name": "solc",
    "version": "0.8.13+commit.abaa5c0e.Emscripten.clang"
  },
  "schemaVersion": "3.4.7",
  "updatedAt": "2022-04-28T07:05:00.356Z",
  "devdoc": {
    "kind": "dev",
    "methods": {
      "balanceOf(address)": {
        "details": "NFTs assigned to the zero address are considered invalid, and this  function throws for queries about the zero address.",
        "params": {
          "_owner": "An address for whom to query the balance"
        },
        "returns": {
          "_0": "The number of NFTs owned by `_owner`, possibly zero"
        }
      },
      "getApproved(uint256)": {
        "details": "See {IERC721-getApproved}."
      },
      "isApprovedForAll(address,address)": {
        "details": "See {IERC721-isApprovedForAll}."
      },
      "ownerOf(uint256)": {
        "details": "NFTs assigned to zero address are considered invalid, and queries  about them do throw.",
        "params": {
          "_tokenId": "The identifier for an NFT"
        },
        "returns": {
          "_0": "The address of the owner of the NFT"
        }
      },
      "safeTransferFrom(address,address,uint256)": {
        "details": "See {IERC721-safeTransferFrom}."
      },
      "safeTransferFrom(address,address,uint256,bytes)": {
        "details": "See {IERC721-safeTransferFrom}."
      },
      "setApprovalForAll(address,bool)": {
        "details": "See {IERC721-setApprovalForAll}."
      },
      "supportsInterface(bytes4)": {
        "details": "Interface identification is specified in ERC-165. This function  uses less than 30,000 gas.",
        "params": {
          "interfaceID": "The interface identifier, as specified in ERC-165"
        },
        "returns": {
          "_0": "`true` if the contract implements `interfaceID` and  `interfaceID` is not 0xffffffff, `false` otherwise"
        }
      },
      "tokenByIndex(uint256)": {
        "details": "Throws if `_index` >= `totalSupply()`.",
        "params": {
          "_index": "A counter less than `totalSupply()`"
        },
        "returns": {
          "_0": "The token identifier for the `_index`th NFT,  (sort order not specified)"
        }
      },
      "tokenOfOwnerByIndex(address,uint256)": {
        "details": "Throws if `_index` >= `balanceOf(_owner)` or if  `_owner` is the zero address, representing invalid NFTs.",
        "params": {
          "_index": "A counter less than `balanceOf(_owner)`",
          "_owner": "An address where we are interested in NFTs owned by them"
        },
        "returns": {
          "_0": "The token identifier for the `_index`th NFT assigned to `_owner`,   (sort order not specified)"
        }
      },
      "tokenURI(uint256)": {
        "details": "See {IERC721Metadata-tokenURI}."
      },
      "totalSupply()": {
        "returns": {
          "_0": "A count of valid NFTs tracked by this contract, where each one of  them has an assigned and queryable owner not equal to the zero address"
        }
      },
      "transferFrom(address,address,uint256)": {
        "details": "Throws unless `msg.sender` is the current owner, an authorized  operator, or the approved address for this NFT. Throws if `_from` is  not the current owner. Throws if `_to` is the zero address. Throws if  `_tokenId` is not a valid NFT.",
        "params": {
          "_from": "The current owner of the NFT",
          "_to": "The new owner",
          "_tokenId": "The NFT to transfer"
        }
      }
    },
    "version": 1
  },
  "userdoc": {
    "kind": "user",
    "methods": {
      "balanceOf(address)": {
        "notice": "Count all NFTs assigned to an owner"
      },
      "name()": {
        "notice": "A descriptive name for a collection of NFTs in this contract"
      },
      "ownerOf(uint256)": {
        "notice": "Find the owner of an NFT"
      },
      "supportsInterface(bytes4)": {
        "notice": "Query if a contract implements an interface"
      },
      "symbol()": {
        "notice": "An abbreviated name for NFTs in this contract"
      },
      "tokenByIndex(uint256)": {
        "notice": "Enumerate valid NFTs"
      },
      "tokenOfOwnerByIndex(address,uint256)": {
        "notice": "Enumerate NFTs assigned to an owner"
      },
      "totalSupply()": {
        "notice": "Count NFTs tracked by this contract"
      },
      "transferFrom(address,address,uint256)": {
        "notice": "Transfer ownership of an NFT -- THE CALLER IS RESPONSIBLE  TO CONFIRM THAT `_to` IS CAPABLE OF RECEIVING NFTS OR ELSE  THEY MAY BE PERMANENTLY LOST"
      }
    },
    "version": 1
  }
}