{
  "contractName": "ERC721Metadata",
  "abi": [
    {
      "inputs": [
        {
          "internalType": "string",
          "name": "named",
          "type": "string"
        },
        {
          "internalType": "string",
          "name": "symbolified",
          "type": "string"
        }
      ],
      "stateMutability": "nonpayable",
      "type": "constructor"
    },
    {
      "inputs": [
        {
          "internalType": "bytes4",
          "name": "interfaceID",
          "type": "bytes4"
        }
      ],
      "name": "supportsInterface",
      "outputs": [
        {
          "internalType": "bool",
          "name": "",
          "type": "bool"
        }
      ],
      "stateMutability": "view",
      "type": "function"
    },
    {
      "inputs": [],
      "name": "name",
      "outputs": [
        {
          "internalType": "string",
          "name": "",
          "type": "string"
        }
      ],
      "stateMutability": "view",
      "type": "function"
    },
    {
      "inputs": [],
      "name": "symbol",
      "outputs": [
        {
          "internalType": "string",
          "name": "",
          "type": "string"
        }
      ],
      "stateMutability": "view",
      "type": "function"
    },
    {
      "inputs": [
        {
          "internalType": "uint256",
          "name": "tokenId",
          "type": "uint256"
        }
      ],
      "name": "tokenName",
      "outputs": [
        {
          "internalType": "string",
          "name": "",
          "type": "string"
        }
      ],
      "stateMutability": "view",
      "type": "function"
    },
    {
      "inputs": [
        {
          "internalType": "uint256",
          "name": "tokenId",
          "type": "uint256"
        }
      ],
      "name": "tokenDescription",
      "outputs": [
        {
          "internalType": "string",
          "name": "",
          "type": "string"
        }
      ],
      "stateMutability": "view",
      "type": "function"
    },
    {
      "inputs": [
        {
          "internalType": "uint256",
          "name": "tokenId",
          "type": "uint256"
        }
      ],
      "name": "tokenCost",
      "outputs": [
        {
          "internalType": "string",
          "name": "",
          "type": "string"
        }
      ],
      "stateMutability": "view",
      "type": "function"
    },
    {
      "inputs": [
        {
          "internalType": "uint256",
          "name": "tokenId",
          "type": "uint256"
        }
      ],
      "name": "tokenURI",
      "outputs": [
        {
          "internalType": "string",
          "name": "",
          "type": "string"
        }
      ],
      "stateMutability": "view",
      "type": "function"
    }
  ],
  "bytecode": "0x60806040523480156200001157600080fd5b506040516200119f3803806200119f83398181016040528101906200003791906200043b565b620000687f01ffc9a7a5cef8baa21ed3c5c0d7e23accb804b619e9333b597f47a0d84076e26200011760201b60201c565b816001908051906020019062000080929190620001ee565b50806002908051906020019062000099929190620001ee565b506200010f7ffe1fe95acebadd5c664ee41aecf527d79ff82e329abb64857d6e0d40371737b17f13b182f4c0e5b2efbac0efe6cf6d756c8b89f4b79c5707a043ed9ea740574ee97f7feaf19471f34a12a7eaf32d5f3090aa2260ea8624dc8a138e74e0bf0f62307618186200011760201b60201c565b5050620005cd565b63ffffffff60e01b817bffffffffffffffffffffffffffffffffffffffffffffffffffffffff19160362000182576040517f08c379a0000000000000000000000000000000000000000000000000000000008152600401620001799062000547565b60405180910390fd5b6001600080837bffffffffffffffffffffffffffffffffffffffffffffffffffffffff19167bffffffffffffffffffffffffffffffffffffffffffffffffffffffff1916815260200190815260200160002060006101000a81548160ff02191690831515021790555050565b828054620001fc9062000598565b90600052602060002090601f0160209004810192826200022057600085556200026c565b82601f106200023b57805160ff19168380011785556200026c565b828001600101855582156200026c579182015b828111156200026b5782518255916020019190600101906200024e565b5b5090506200027b91906200027f565b5090565b5b808211156200029a57600081600090555060010162000280565b5090565b6000604051905090565b600080fd5b600080fd5b600080fd5b600080fd5b6000601f19601f8301169050919050565b7f4e487b7100000000000000000000000000000000000000000000000000000000600052604160045260246000fd5b6200030782620002bc565b810181811067ffffffffffffffff82111715620003295762000328620002cd565b5b80604052505050565b60006200033e6200029e565b90506200034c8282620002fc565b919050565b600067ffffffffffffffff8211156200036f576200036e620002cd565b5b6200037a82620002bc565b9050602081019050919050565b60005b83811015620003a75780820151818401526020810190506200038a565b83811115620003b7576000848401525b50505050565b6000620003d4620003ce8462000351565b62000332565b905082815260208101848484011115620003f357620003f2620002b7565b5b6200040084828562000387565b509392505050565b600082601f83011262000420576200041f620002b2565b5b815162000432848260208601620003bd565b91505092915050565b60008060408385031215620004555762000454620002a8565b5b600083015167ffffffffffffffff811115620004765762000475620002ad565b5b620004848582860162000408565b925050602083015167ffffffffffffffff811115620004a857620004a7620002ad565b5b620004b68582860162000408565b9150509250929050565b600082825260208201905092915050565b7f4552433136353a20496e76616c696420696e746572666163652072657175657360008201527f7421000000000000000000000000000000000000000000000000000000000000602082015250565b60006200052f602283620004c0565b91506200053c82620004d1565b604082019050919050565b60006020820190508181036000830152620005628162000520565b9050919050565b7f4e487b7100000000000000000000000000000000000000000000000000000000600052602260045260246000fd5b60006002820490506001821680620005b157607f821691505b602082108103620005c757620005c662000569565b5b50919050565b610bc280620005dd6000396000f3fe608060405234801561001057600080fd5b506004361061007d5760003560e01c80639fed62c11161005b5780639fed62c1146100ee578063a0c6d5371461011e578063c87b56dd1461014e578063e725f8771461017e5761007d565b806301ffc9a71461008257806306fdde03146100b257806395d89b41146100d0575b600080fd5b61009c6004803603810190610097919061075b565b6101ae565b6040516100a991906107a3565b60405180910390f35b6100ba610215565b6040516100c79190610857565b60405180910390f35b6100d86102a7565b6040516100e59190610857565b60405180910390f35b610108600480360381019061010391906108af565b610339565b6040516101159190610857565b60405180910390f35b610138600480360381019061013391906108af565b6103de565b6040516101459190610857565b60405180910390f35b610168600480360381019061016391906108af565b610483565b6040516101759190610857565b60405180910390f35b610198600480360381019061019391906108af565b6104e2565b6040516101a59190610857565b60405180910390f35b6000806000837bffffffffffffffffffffffffffffffffffffffffffffffffffffffff19167bffffffffffffffffffffffffffffffffffffffffffffffffffffffff1916815260200190815260200160002060009054906101000a900460ff169050919050565b6060600180546102249061090b565b80601f01602080910402602001604051908101604052809291908181526020018280546102509061090b565b801561029d5780601f106102725761010080835404028352916020019161029d565b820191906000526020600020905b81548152906001019060200180831161028057829003601f168201915b5050505050905090565b6060600280546102b69061090b565b80601f01602080910402602001604051908101604052809291908181526020018280546102e29061090b565b801561032f5780601f106103045761010080835404028352916020019161032f565b820191906000526020600020905b81548152906001019060200180831161031257829003601f168201915b5050505050905090565b60606005600083815260200190815260200160002080546103599061090b565b80601f01602080910402602001604051908101604052809291908181526020018280546103859061090b565b80156103d25780601f106103a7576101008083540402835291602001916103d2565b820191906000526020600020905b8154815290600101906020018083116103b557829003601f168201915b50505050509050919050565b60606004600083815260200190815260200160002080546103fe9061090b565b80601f016020809104026020016040519081016040528092919081815260200182805461042a9061090b565b80156104775780601f1061044c57610100808354040283529160200191610477565b820191906000526020600020905b81548152906001019060200180831161045a57829003601f168201915b50505050509050919050565b6060600061048f610587565b905060008151116104af57604051806020016040528060008152506104da565b806104b98461059e565b6040516020016104ca929190610978565b6040516020818303038152906040525b915050919050565b60606003600083815260200190815260200160002080546105029061090b565b80601f016020809104026020016040519081016040528092919081815260200182805461052e9061090b565b801561057b5780601f106105505761010080835404028352916020019161057b565b820191906000526020600020905b81548152906001019060200180831161055e57829003601f168201915b50505050509050919050565b606060405180602001604052806000815250905090565b6060600082036105e5576040518060400160405280600181526020017f300000000000000000000000000000000000000000000000000000000000000081525090506106f9565b600082905060005b60008214610617578080610600906109cb565b915050600a826106109190610a42565b91506105ed565b60008167ffffffffffffffff81111561063357610632610a73565b5b6040519080825280601f01601f1916602001820160405280156106655781602001600182028036833780820191505090505b5090505b600085146106f25760018261067e9190610aa2565b9150600a8561068d9190610ad6565b60306106999190610b07565b60f81b8183815181106106af576106ae610b5d565b5b60200101907effffffffffffffffffffffffffffffffffffffffffffffffffffffffffffff1916908160001a905350600a856106eb9190610a42565b9450610669565b8093505050505b919050565b600080fd5b60007fffffffff0000000000000000000000000000000000000000000000000000000082169050919050565b61073881610703565b811461074357600080fd5b50565b6000813590506107558161072f565b92915050565b600060208284031215610771576107706106fe565b5b600061077f84828501610746565b91505092915050565b60008115159050919050565b61079d81610788565b82525050565b60006020820190506107b86000830184610794565b92915050565b600081519050919050565b600082825260208201905092915050565b60005b838110156107f85780820151818401526020810190506107dd565b83811115610807576000848401525b50505050565b6000601f19601f8301169050919050565b6000610829826107be565b61083381856107c9565b93506108438185602086016107da565b61084c8161080d565b840191505092915050565b60006020820190508181036000830152610871818461081e565b905092915050565b6000819050919050565b61088c81610879565b811461089757600080fd5b50565b6000813590506108a981610883565b92915050565b6000602082840312156108c5576108c46106fe565b5b60006108d38482850161089a565b91505092915050565b7f4e487b7100000000000000000000000000000000000000000000000000000000600052602260045260246000fd5b6000600282049050600182168061092357607f821691505b602082108103610936576109356108dc565b5b50919050565b600081905092915050565b6000610952826107be565b61095c818561093c565b935061096c8185602086016107da565b80840191505092915050565b60006109848285610947565b91506109908284610947565b91508190509392505050565b7f4e487b7100000000000000000000000000000000000000000000000000000000600052601160045260246000fd5b60006109d682610879565b91507fffffffffffffffffffffffffffffffffffffffffffffffffffffffffffffffff8203610a0857610a0761099c565b5b600182019050919050565b7f4e487b7100000000000000000000000000000000000000000000000000000000600052601260045260246000fd5b6000610a4d82610879565b9150610a5883610879565b925082610a6857610a67610a13565b5b828204905092915050565b7f4e487b7100000000000000000000000000000000000000000000000000000000600052604160045260246000fd5b6000610aad82610879565b9150610ab883610879565b925082821015610acb57610aca61099c565b5b828203905092915050565b6000610ae182610879565b9150610aec83610879565b925082610afc57610afb610a13565b5b828206905092915050565b6000610b1282610879565b9150610b1d83610879565b9250827fffffffffffffffffffffffffffffffffffffffffffffffffffffffffffffffff03821115610b5257610b5161099c565b5b828201905092915050565b7f4e487b7100000000000000000000000000000000000000000000000000000000600052603260045260246000fdfea26469706673582212200f0aaae51d0910925d70e64d8146f58e90d6d27569877b850a0b544d250797d564736f6c634300080d0033",
  "immutableReferences": {},
  "source": "// SPDX-License-Identifier: MIT\npragma solidity ^0.8.0;\n\nimport './interfaces/IERC721Metadata.sol';\nimport './libraries/Strings.sol';\nimport './ERC165.sol';\n\ncontract ERC721Metadata is IERC721Metadata, ERC165 {\n\n    string private _name;\n    string private _symbol;\n    mapping(uint256 => string) private _tokenName;\n    mapping(uint256 => string) private _tokenDescription;\n    mapping(uint256 => string) private _tokenCost;\n\n    constructor(string memory named, string memory symbolified) {\n        _name = named;\n        _symbol = symbolified;\n\n        _registerInterface(bytes4(\n            keccak256('name(bytes4)')^\n            keccak256('symbol(bytes4)')^\n            keccak256('tokenURI(bytes4)')\n        ));\n    }\n\n    function name() external view override returns (string memory) {\n        return _name;\n    }\n\n    function symbol() external view override returns (string memory) {\n        return _symbol;\n    }\n\n    function tokenName(uint256 tokenId) external view returns (string memory){\n        return _tokenName[tokenId];\n    }\n\n    function _setTokenName(uint256 tokenId, string memory token_name) internal {\n        _tokenName[tokenId] = token_name;\n    }\n\n    function tokenDescription(uint256 tokenId) external view returns (string memory){\n        return _tokenDescription[tokenId];\n    }\n\n    function _setTokenDescription(uint256 tokenId, string memory token_description) internal {\n        _tokenDescription[tokenId] = token_description;\n    }\n\n    function tokenCost(uint256 tokenId) external view returns (string memory){\n        return _tokenCost[tokenId];\n    }\n\n    function _setTokenCost(uint256 tokenId, string memory token_cost) internal {\n        _tokenCost[tokenId] = token_cost;\n    }\n    \n    /**\n     * @dev See {IERC721Metadata-tokenURI}.\n     */\n    function tokenURI(uint256 tokenId) public view virtual override returns (string memory) {\n        string memory baseURI = _baseURI();\n        return bytes(baseURI).length > 0 ? string(abi.encodePacked(baseURI, Strings.toString(tokenId))) : \"\";\n    }\n\n    /**\n     * @dev Base URI for computing {tokenURI}. If set, the resulting URI for each\n     * token will be the concatenation of the `baseURI` and the `tokenId`. Empty\n     * by default, can be overriden in child contracts.\n     */\n    function _baseURI() internal view virtual returns (string memory) {\n        return \"\";\n    }\n}",
  "sourcePath": "/home/m9/Documents/nft-marketplace-starter-kit/src/contracts/ERC721Metadata.sol",
  "compiler": {
    "name": "solc",
    "version": "0.8.13+commit.abaa5c0e.Emscripten.clang"
  },
  "schemaVersion": "3.4.7",
  "updatedAt": "2022-04-28T07:05:00.380Z",
  "devdoc": {
    "kind": "dev",
    "methods": {
      "supportsInterface(bytes4)": {
        "details": "Interface identification is specified in ERC-165. This function  uses less than 30,000 gas.",
        "params": {
          "interfaceID": "The interface identifier, as specified in ERC-165"
        },
        "returns": {
          "_0": "`true` if the contract implements `interfaceID` and  `interfaceID` is not 0xffffffff, `false` otherwise"
        }
      },
      "tokenURI(uint256)": {
        "details": "See {IERC721Metadata-tokenURI}."
      }
    },
    "version": 1
  },
  "userdoc": {
    "kind": "user",
    "methods": {
      "name()": {
        "notice": "A descriptive name for a collection of NFTs in this contract"
      },
      "supportsInterface(bytes4)": {
        "notice": "Query if a contract implements an interface"
      },
      "symbol()": {
        "notice": "An abbreviated name for NFTs in this contract"
      }
    },
    "version": 1
  }
}