{
  "contractName": "KryptoBird",
  "abi": [
    {
      "inputs": [],
      "stateMutability": "nonpayable",
      "type": "constructor"
    },
    {
      "anonymous": false,
      "inputs": [
        {
          "indexed": true,
          "internalType": "address",
          "name": "_owner",
          "type": "address"
        },
        {
          "indexed": true,
          "internalType": "address",
          "name": "_approved",
          "type": "address"
        },
        {
          "indexed": true,
          "internalType": "uint256",
          "name": "_tokenId",
          "type": "uint256"
        }
      ],
      "name": "Approval",
      "type": "event"
    },
    {
      "anonymous": false,
      "inputs": [
        {
          "indexed": true,
          "internalType": "address",
          "name": "_owner",
          "type": "address"
        },
        {
          "indexed": true,
          "internalType": "address",
          "name": "_operator",
          "type": "address"
        },
        {
          "indexed": false,
          "internalType": "bool",
          "name": "_approved",
          "type": "bool"
        }
      ],
      "name": "ApprovalForAll",
      "type": "event"
    },
    {
      "anonymous": false,
      "inputs": [
        {
          "indexed": true,
          "internalType": "address",
          "name": "_from",
          "type": "address"
        },
        {
          "indexed": true,
          "internalType": "address",
          "name": "_to",
          "type": "address"
        },
        {
          "indexed": true,
          "internalType": "uint256",
          "name": "_tokenId",
          "type": "uint256"
        }
      ],
      "name": "Transfer",
      "type": "event"
    },
    {
      "inputs": [
        {
          "internalType": "address",
          "name": "_to",
          "type": "address"
        },
        {
          "internalType": "uint256",
          "name": "_tokenId",
          "type": "uint256"
        }
      ],
      "name": "approve",
      "outputs": [],
      "stateMutability": "nonpayable",
      "type": "function"
    },
    {
      "inputs": [
        {
          "internalType": "address",
          "name": "_owner",
          "type": "address"
        }
      ],
      "name": "balanceOf",
      "outputs": [
        {
          "internalType": "uint256",
          "name": "",
          "type": "uint256"
        }
      ],
      "stateMutability": "view",
      "type": "function",
      "constant": true
    },
    {
      "inputs": [
        {
          "internalType": "uint256",
          "name": "tokenId",
          "type": "uint256"
        }
      ],
      "name": "getApproved",
      "outputs": [
        {
          "internalType": "address",
          "name": "",
          "type": "address"
        }
      ],
      "stateMutability": "view",
      "type": "function",
      "constant": true
    },
    {
      "inputs": [
        {
          "internalType": "address",
          "name": "owner",
          "type": "address"
        },
        {
          "internalType": "address",
          "name": "operator",
          "type": "address"
        }
      ],
      "name": "isApprovedForAll",
      "outputs": [
        {
          "internalType": "bool",
          "name": "",
          "type": "bool"
        }
      ],
      "stateMutability": "view",
      "type": "function",
      "constant": true
    },
    {
      "inputs": [
        {
          "internalType": "uint256",
          "name": "",
          "type": "uint256"
        }
      ],
      "name": "kryptoBirdz",
      "outputs": [
        {
          "internalType": "string",
          "name": "",
          "type": "string"
        }
      ],
      "stateMutability": "view",
      "type": "function",
      "constant": true
    },
    {
      "inputs": [],
      "name": "name",
      "outputs": [
        {
          "internalType": "string",
          "name": "",
          "type": "string"
        }
      ],
      "stateMutability": "view",
      "type": "function",
      "constant": true
    },
    {
      "inputs": [
        {
          "internalType": "uint256",
          "name": "_tokenId",
          "type": "uint256"
        }
      ],
      "name": "ownerOf",
      "outputs": [
        {
          "internalType": "address",
          "name": "",
          "type": "address"
        }
      ],
      "stateMutability": "view",
      "type": "function",
      "constant": true
    },
    {
      "inputs": [
        {
          "internalType": "address",
          "name": "from",
          "type": "address"
        },
        {
          "internalType": "address",
          "name": "to",
          "type": "address"
        },
        {
          "internalType": "uint256",
          "name": "tokenId",
          "type": "uint256"
        }
      ],
      "name": "safeTransferFrom",
      "outputs": [],
      "stateMutability": "nonpayable",
      "type": "function"
    },
    {
      "inputs": [
        {
          "internalType": "address",
          "name": "from",
          "type": "address"
        },
        {
          "internalType": "address",
          "name": "to",
          "type": "address"
        },
        {
          "internalType": "uint256",
          "name": "tokenId",
          "type": "uint256"
        },
        {
          "internalType": "bytes",
          "name": "_data",
          "type": "bytes"
        }
      ],
      "name": "safeTransferFrom",
      "outputs": [],
      "stateMutability": "nonpayable",
      "type": "function"
    },
    {
      "inputs": [
        {
          "internalType": "address",
          "name": "operator",
          "type": "address"
        },
        {
          "internalType": "bool",
          "name": "approved",
          "type": "bool"
        }
      ],
      "name": "setApprovalForAll",
      "outputs": [],
      "stateMutability": "nonpayable",
      "type": "function"
    },
    {
      "inputs": [
        {
          "internalType": "bytes4",
          "name": "interfaceID",
          "type": "bytes4"
        }
      ],
      "name": "supportsInterface",
      "outputs": [
        {
          "internalType": "bool",
          "name": "",
          "type": "bool"
        }
      ],
      "stateMutability": "view",
      "type": "function",
      "constant": true
    },
    {
      "inputs": [],
      "name": "symbol",
      "outputs": [
        {
          "internalType": "string",
          "name": "",
          "type": "string"
        }
      ],
      "stateMutability": "view",
      "type": "function",
      "constant": true
    },
    {
      "inputs": [
        {
          "internalType": "uint256",
          "name": "_index",
          "type": "uint256"
        }
      ],
      "name": "tokenByIndex",
      "outputs": [
        {
          "internalType": "uint256",
          "name": "",
          "type": "uint256"
        }
      ],
      "stateMutability": "view",
      "type": "function",
      "constant": true
    },
    {
      "inputs": [
        {
          "internalType": "uint256",
          "name": "tokenId",
          "type": "uint256"
        }
      ],
      "name": "tokenCost",
      "outputs": [
        {
          "internalType": "string",
          "name": "",
          "type": "string"
        }
      ],
      "stateMutability": "view",
      "type": "function",
      "constant": true
    },
    {
      "inputs": [
        {
          "internalType": "uint256",
          "name": "tokenId",
          "type": "uint256"
        }
      ],
      "name": "tokenDescription",
      "outputs": [
        {
          "internalType": "string",
          "name": "",
          "type": "string"
        }
      ],
      "stateMutability": "view",
      "type": "function",
      "constant": true
    },
    {
      "inputs": [
        {
          "internalType": "uint256",
          "name": "tokenId",
          "type": "uint256"
        }
      ],
      "name": "tokenName",
      "outputs": [
        {
          "internalType": "string",
          "name": "",
          "type": "string"
        }
      ],
      "stateMutability": "view",
      "type": "function",
      "constant": true
    },
    {
      "inputs": [
        {
          "internalType": "address",
          "name": "_owner",
          "type": "address"
        },
        {
          "internalType": "uint256",
          "name": "_index",
          "type": "uint256"
        }
      ],
      "name": "tokenOfOwnerByIndex",
      "outputs": [
        {
          "internalType": "uint256",
          "name": "",
          "type": "uint256"
        }
      ],
      "stateMutability": "view",
      "type": "function",
      "constant": true
    },
    {
      "inputs": [
        {
          "internalType": "uint256",
          "name": "tokenId",
          "type": "uint256"
        }
      ],
      "name": "tokenURI",
      "outputs": [
        {
          "internalType": "string",
          "name": "",
          "type": "string"
        }
      ],
      "stateMutability": "view",
      "type": "function",
      "constant": true
    },
    {
      "inputs": [],
      "name": "totalSupply",
      "outputs": [
        {
          "internalType": "uint256",
          "name": "",
          "type": "uint256"
        }
      ],
      "stateMutability": "view",
      "type": "function",
      "constant": true
    },
    {
      "inputs": [
        {
          "internalType": "address",
          "name": "_from",
          "type": "address"
        },
        {
          "internalType": "address",
          "name": "_to",
          "type": "address"
        },
        {
          "internalType": "uint256",
          "name": "_tokenId",
          "type": "uint256"
        }
      ],
      "name": "transferFrom",
      "outputs": [],
      "stateMutability": "nonpayable",
      "type": "function"
    },
    {
      "inputs": [
        {
          "internalType": "string",
          "name": "_kryptoBird",
          "type": "string"
        },
        {
          "internalType": "string",
          "name": "token_name",
          "type": "string"
        },
        {
          "internalType": "string",
          "name": "token_description",
          "type": "string"
        },
        {
          "internalType": "string",
          "name": "token_cost",
          "type": "string"
        }
      ],
      "name": "mint",
      "outputs": [],
      "stateMutability": "nonpayable",
      "type": "function"
    }
  ],
  "bytecode": "0x60806040523480156200001157600080fd5b506040518060400160405280600a81526020017f4b727970746f42697264000000000000000000000000000000000000000000008152506040518060400160405280600681526020017f4b424952445a00000000000000000000000000000000000000000000000000008152508181620000b17f01ffc9a7a5cef8baa21ed3c5c0d7e23accb804b619e9333b597f47a0d84076e2620002f860201b60201c565b8160019080519060200190620000c9929190620003cf565b508060029080519060200190620000e2929190620003cf565b50620001587ffe1fe95acebadd5c664ee41aecf527d79ff82e329abb64857d6e0d40371737b17f13b182f4c0e5b2efbac0efe6cf6d756c8b89f4b79c5707a043ed9ea740574ee97f7feaf19471f34a12a7eaf32d5f3090aa2260ea8624dc8a138e74e0bf0f6230761818620002f860201b60201c565b50506200027b7fe0c9b09697cad3aa3f2bcb7fdd781becaefa478990b24e83d3bfdb65623d77537f5af227006b8981efabb10af200ab71f08976cbce54b4c59ae5c97811d19a398c7f90dba0bef8387ab29f95a1abead857c8ccc338f1038f6fa159fa78fd18aff9f77f8c51fd5fcf1f456ec4eb0f32f68d83471264fe082fac12bcbfd2fa4be9eed6c77f22c82707ba960a14c7592ffb6b8cfaa073fed0048a84cc7fa41f6b5bd8e7f2e47f1cf138a85b0e62e7e98a8302d9c9eb9460c8ba52e5da3c28daff2b626089dd8d807f3a6eb71757dfc6e784c1459d26270140c2c147d95ca985c80026fc5301c3eca17f8a7e378434598edc36d108689a030cbc9d7d465de4f74c71bae1028eed6a881b1818181818181818620002f860201b60201c565b620002f07f8230223f691b981717299fae9549350a0d894555723531f02108b1f522c1a7977f6da5e1284143cdd2d15038a59bde3be031250f00291d64494c12d967b3a4e0c37fc53637662700e6c65104059db8bba34439e0c32483ab7c34e3ccae52c73954951818620002f860201b60201c565b50506200058c565b63ffffffff60e01b817bffffffffffffffffffffffffffffffffffffffffffffffffffffffff19160362000363576040517f08c379a00000000000000000000000000000000000000000000000000000000081526004016200035a9062000506565b60405180910390fd5b6001600080837bffffffffffffffffffffffffffffffffffffffffffffffffffffffff19167bffffffffffffffffffffffffffffffffffffffffffffffffffffffff1916815260200190815260200160002060006101000a81548160ff02191690831515021790555050565b828054620003dd9062000557565b90600052602060002090601f0160209004810192826200040157600085556200044d565b82601f106200041c57805160ff19168380011785556200044d565b828001600101855582156200044d579182015b828111156200044c5782518255916020019190600101906200042f565b5b5090506200045c919062000460565b5090565b5b808211156200047b57600081600090555060010162000461565b5090565b600082825260208201905092915050565b7f4552433136353a20496e76616c696420696e746572666163652072657175657360008201527f7421000000000000000000000000000000000000000000000000000000000000602082015250565b6000620004ee6022836200047f565b9150620004fb8262000490565b604082019050919050565b600060208201905081810360008301526200052181620004df565b9050919050565b7f4e487b7100000000000000000000000000000000000000000000000000000000600052602260045260246000fd5b600060028204905060018216806200057057607f821691505b60208210810362000586576200058562000528565b5b50919050565b61351a806200059c6000396000f3fe608060405234801561001057600080fd5b50600436106101375760003560e01c80636352211e116100b8578063a0c6d5371161007c578063a0c6d53714610386578063a22cb465146103b6578063b88d4fde146103d2578063c87b56dd146103ee578063e725f8771461041e578063e985e9c51461044e57610137565b80636352211e146102a857806370a08231146102d857806393ab6e561461030857806395d89b41146103385780639fed62c11461035657610137565b806318160ddd116100ff57806318160ddd146101f257806323b872dd146102105780632f745c591461022c57806342842e0e1461025c5780634f6ccce71461027857610137565b806301ffc9a71461013c57806302341c711461016c57806306fdde0314610188578063081812fc146101a6578063095ea7b3146101d6575b600080fd5b61015660048036038101906101519190611ff0565b61047e565b6040516101639190612038565b60405180910390f35b61018660048036038101906101819190612199565b6104e5565b005b610190610609565b60405161019d91906122f8565b60405180910390f35b6101c060048036038101906101bb9190612350565b61069b565b6040516101cd91906123be565b60405180910390f35b6101f060048036038101906101eb9190612405565b610720565b005b6101fa61092a565b6040516102079190612454565b60405180910390f35b61022a6004803603810190610225919061246f565b610937565b005b61024660048036038101906102419190612405565b610990565b6040516102539190612454565b60405180910390f35b6102766004803603810190610271919061246f565b610a40565b005b610292600480360381019061028d9190612350565b610a60565b60405161029f9190612454565b60405180910390f35b6102c260048036038101906102bd9190612350565b610ad1565b6040516102cf91906123be565b60405180910390f35b6102f260048036038101906102ed91906124c2565b610b82565b6040516102ff9190612454565b60405180910390f35b610322600480360381019061031d9190612350565b610c40565b60405161032f91906122f8565b60405180910390f35b610340610cec565b60405161034d91906122f8565b60405180910390f35b610370600480360381019061036b9190612350565b610d7e565b60405161037d91906122f8565b60405180910390f35b6103a0600480360381019061039b9190612350565b610e23565b6040516103ad91906122f8565b60405180910390f35b6103d060048036038101906103cb919061251b565b610ec8565b005b6103ec60048036038101906103e791906125fc565b610ed7565b005b61040860048036038101906104039190612350565b610f32565b60405161041591906122f8565b60405180910390f35b61043860048036038101906104339190612350565b610f91565b60405161044591906122f8565b60405180910390f35b6104686004803603810190610463919061267f565b611036565b6040516104759190612038565b60405180910390f35b6000806000837bffffffffffffffffffffffffffffffffffffffffffffffffffffffff19167bffffffffffffffffffffffffffffffffffffffffffffffffffffffff1916815260200190815260200160002060009054906101000a900460ff169050919050565b600f846040516104f591906126fb565b908152602001604051809103902060009054906101000a900460ff1615610551576040517f08c379a000000000000000000000000000000000000000000000000000000000815260040161054890612784565b60405180910390fd5b600e8490806001815401808255809150506001900390600052602060002001600090919091909150908051906020019061058c929190611ee1565b5060006001600e805490506105a191906127d3565b90506105ad33826110ca565b6105b781856110eb565b6105c18184611117565b6105cb8183611143565b6001600f866040516105dd91906126fb565b908152602001604051809103902060006101000a81548160ff0219169083151502179055505050505050565b60606001805461061890612836565b80601f016020809104026020016040519081016040528092919081815260200182805461064490612836565b80156106915780601f1061066657610100808354040283529160200191610691565b820191906000526020600020905b81548152906001019060200180831161067457829003601f168201915b5050505050905090565b60006106a68261116f565b6106e5576040517f08c379a00000000000000000000000000000000000000000000000000000000081526004016106dc906128d9565b60405180910390fd5b6008600083815260200190815260200160002060009054906101000a900473ffffffffffffffffffffffffffffffffffffffff169050919050565b600061072b82610ad1565b90508073ffffffffffffffffffffffffffffffffffffffff168373ffffffffffffffffffffffffffffffffffffffff160361079b576040517f08c379a00000000000000000000000000000000000000000000000000000000081526004016107929061296b565b60405180910390fd5b3373ffffffffffffffffffffffffffffffffffffffff168173ffffffffffffffffffffffffffffffffffffffff1614610809576040517f08c379a0000000000000000000000000000000000000000000000000000000008152600401610800906129fd565b60405180910390fd5b600073ffffffffffffffffffffffffffffffffffffffff168373ffffffffffffffffffffffffffffffffffffffff1603610878576040517f08c379a000000000000000000000000000000000000000000000000000000000815260040161086f90612a8f565b60405180910390fd5b826008600084815260200190815260200160002060006101000a81548173ffffffffffffffffffffffffffffffffffffffff021916908373ffffffffffffffffffffffffffffffffffffffff160217905550818373ffffffffffffffffffffffffffffffffffffffff168273ffffffffffffffffffffffffffffffffffffffff167f8c5be1e5ebec7d5bd14f71427d1e84f3dd0314c0f7b2291e5b200ac8c7c3b92560405160405180910390a4505050565b6000600a80549050905090565b61094133826111e1565b610980576040517f08c379a000000000000000000000000000000000000000000000000000000000815260040161097790612b21565b60405180910390fd5b61098b8383836112bf565b505050565b600061099b83610b82565b82106109dc576040517f08c379a00000000000000000000000000000000000000000000000000000000081526004016109d390612bb3565b60405180910390fd5b600c60008473ffffffffffffffffffffffffffffffffffffffff1673ffffffffffffffffffffffffffffffffffffffff1681526020019081526020016000208281548110610a2d57610a2c612bd3565b5b9060005260206000200154905092915050565b610a5b83838360405180602001604052806000815250610ed7565b505050565b6000610a6a61092a565b8210610aab576040517f08c379a0000000000000000000000000000000000000000000000000000000008152600401610aa290612c74565b60405180910390fd5b600a8281548110610abf57610abe612bd3565b5b90600052602060002001549050919050565b6000806006600084815260200190815260200160002060009054906101000a900473ffffffffffffffffffffffffffffffffffffffff169050600073ffffffffffffffffffffffffffffffffffffffff168173ffffffffffffffffffffffffffffffffffffffff1603610b79576040517f08c379a0000000000000000000000000000000000000000000000000000000008152600401610b7090612d06565b60405180910390fd5b80915050919050565b60008073ffffffffffffffffffffffffffffffffffffffff168273ffffffffffffffffffffffffffffffffffffffff1603610bf2576040517f08c379a0000000000000000000000000000000000000000000000000000000008152600401610be990612d98565b60405180910390fd5b610c39600760008473ffffffffffffffffffffffffffffffffffffffff1673ffffffffffffffffffffffffffffffffffffffff168152602001908152602001600020611505565b9050919050565b600e8181548110610c5057600080fd5b906000526020600020016000915090508054610c6b90612836565b80601f0160208091040260200160405190810160405280929190818152602001828054610c9790612836565b8015610ce45780601f10610cb957610100808354040283529160200191610ce4565b820191906000526020600020905b815481529060010190602001808311610cc757829003601f168201915b505050505081565b606060028054610cfb90612836565b80601f0160208091040260200160405190810160405280929190818152602001828054610d2790612836565b8015610d745780601f10610d4957610100808354040283529160200191610d74565b820191906000526020600020905b815481529060010190602001808311610d5757829003601f168201915b5050505050905090565b6060600560008381526020019081526020016000208054610d9e90612836565b80601f0160208091040260200160405190810160405280929190818152602001828054610dca90612836565b8015610e175780601f10610dec57610100808354040283529160200191610e17565b820191906000526020600020905b815481529060010190602001808311610dfa57829003601f168201915b50505050509050919050565b6060600460008381526020019081526020016000208054610e4390612836565b80601f0160208091040260200160405190810160405280929190818152602001828054610e6f90612836565b8015610ebc5780601f10610e9157610100808354040283529160200191610ebc565b820191906000526020600020905b815481529060010190602001808311610e9f57829003601f168201915b50505050509050919050565b610ed3338383611513565b5050565b610ee1338361167f565b610f20576040517f08c379a0000000000000000000000000000000000000000000000000000000008152600401610f1790612e2a565b60405180910390fd5b610f2c8484848461175d565b50505050565b60606000610f3e6117b9565b90506000815111610f5e5760405180602001604052806000815250610f89565b80610f68846117d0565b604051602001610f79929190612e4a565b6040516020818303038152906040525b915050919050565b6060600360008381526020019081526020016000208054610fb190612836565b80601f0160208091040260200160405190810160405280929190818152602001828054610fdd90612836565b801561102a5780601f10610fff5761010080835404028352916020019161102a565b820191906000526020600020905b81548152906001019060200180831161100d57829003601f168201915b50505050509050919050565b6000600960008473ffffffffffffffffffffffffffffffffffffffff1673ffffffffffffffffffffffffffffffffffffffff16815260200190815260200160002060008373ffffffffffffffffffffffffffffffffffffffff1673ffffffffffffffffffffffffffffffffffffffff16815260200190815260200160002060009054906101000a900460ff16905092915050565b6110d48282611930565b6110dd81611ae1565b6110e78282611b2a565b5050565b80600360008481526020019081526020016000209080519060200190611112929190611ee1565b505050565b8060046000848152602001908152602001600020908051906020019061113e929190611ee1565b505050565b8060056000848152602001908152602001600020908051906020019061116a929190611ee1565b505050565b6000806006600084815260200190815260200160002060009054906101000a900473ffffffffffffffffffffffffffffffffffffffff169050600073ffffffffffffffffffffffffffffffffffffffff168173ffffffffffffffffffffffffffffffffffffffff161415915050919050565b60006111ec8261116f565b61122b576040517f08c379a000000000000000000000000000000000000000000000000000000000815260040161122290612eba565b60405180910390fd5b600061123683610ad1565b90508073ffffffffffffffffffffffffffffffffffffffff168473ffffffffffffffffffffffffffffffffffffffff1614806112a557508373ffffffffffffffffffffffffffffffffffffffff1661128d8461069b565b73ffffffffffffffffffffffffffffffffffffffff16145b806112b657506112b58185611036565b5b91505092915050565b8273ffffffffffffffffffffffffffffffffffffffff166112df82610ad1565b73ffffffffffffffffffffffffffffffffffffffff1614611335576040517f08c379a000000000000000000000000000000000000000000000000000000000815260040161132c90612f4c565b60405180910390fd5b600073ffffffffffffffffffffffffffffffffffffffff168273ffffffffffffffffffffffffffffffffffffffff16036113a4576040517f08c379a000000000000000000000000000000000000000000000000000000000815260040161139b90612fde565b60405180910390fd5b6113af838383611bfa565b6113ba600082611bff565b611401600760008573ffffffffffffffffffffffffffffffffffffffff1673ffffffffffffffffffffffffffffffffffffffff168152602001908152602001600020611cb8565b611448600760008473ffffffffffffffffffffffffffffffffffffffff1673ffffffffffffffffffffffffffffffffffffffff168152602001908152602001600020611cdb565b816006600083815260200190815260200160002060006101000a81548173ffffffffffffffffffffffffffffffffffffffff021916908373ffffffffffffffffffffffffffffffffffffffff160217905550808273ffffffffffffffffffffffffffffffffffffffff168473ffffffffffffffffffffffffffffffffffffffff167fddf252ad1be2c89b69c2b068fc378daa952ba7f163c4a11628f55a4df523b3ef60405160405180910390a4611500838383611cfa565b505050565b600081600001549050919050565b8173ffffffffffffffffffffffffffffffffffffffff168373ffffffffffffffffffffffffffffffffffffffff1603611581576040517f08c379a00000000000000000000000000000000000000000000000000000000081526004016115789061304a565b60405180910390fd5b80600960008573ffffffffffffffffffffffffffffffffffffffff1673ffffffffffffffffffffffffffffffffffffffff16815260200190815260200160002060008473ffffffffffffffffffffffffffffffffffffffff1673ffffffffffffffffffffffffffffffffffffffff16815260200190815260200160002060006101000a81548160ff0219169083151502179055508173ffffffffffffffffffffffffffffffffffffffff168373ffffffffffffffffffffffffffffffffffffffff167f17307eab39ab6107e8899845ad3d59bd9653f200f220920489ca2b5937696c31836040516116729190612038565b60405180910390a3505050565b600061168a8261116f565b6116c9576040517f08c379a00000000000000000000000000000000000000000000000000000000081526004016116c0906130dc565b60405180910390fd5b60006116d483610ad1565b90508073ffffffffffffffffffffffffffffffffffffffff168473ffffffffffffffffffffffffffffffffffffffff16148061174357508373ffffffffffffffffffffffffffffffffffffffff1661172b8461069b565b73ffffffffffffffffffffffffffffffffffffffff16145b8061175457506117538185611036565b5b91505092915050565b6117688484846112bf565b61177484848484611cff565b6117b3576040517f08c379a00000000000000000000000000000000000000000000000000000000081526004016117aa9061316e565b60405180910390fd5b50505050565b606060405180602001604052806000815250905090565b606060008203611817576040518060400160405280600181526020017f3000000000000000000000000000000000000000000000000000000000000000815250905061192b565b600082905060005b600082146118495780806118329061318e565b915050600a826118429190613205565b915061181f565b60008167ffffffffffffffff8111156118655761186461206e565b5b6040519080825280601f01601f1916602001820160405280156118975781602001600182028036833780820191505090505b5090505b60008514611924576001826118b091906127d3565b9150600a856118bf9190613236565b60306118cb9190613267565b60f81b8183815181106118e1576118e0612bd3565b5b60200101907effffffffffffffffffffffffffffffffffffffffffffffffffffffffffffff1916908160001a905350600a8561191d9190613205565b945061189b565b8093505050505b919050565b600073ffffffffffffffffffffffffffffffffffffffff168273ffffffffffffffffffffffffffffffffffffffff160361199f576040517f08c379a000000000000000000000000000000000000000000000000000000000815260040161199690613309565b60405180910390fd5b6119a88161116f565b156119e8576040517f08c379a00000000000000000000000000000000000000000000000000000000081526004016119df90613375565b60405180910390fd5b816006600083815260200190815260200160002060006101000a81548173ffffffffffffffffffffffffffffffffffffffff021916908373ffffffffffffffffffffffffffffffffffffffff160217905550611a81600760008473ffffffffffffffffffffffffffffffffffffffff1673ffffffffffffffffffffffffffffffffffffffff168152602001908152602001600020611cdb565b808273ffffffffffffffffffffffffffffffffffffffff16600073ffffffffffffffffffffffffffffffffffffffff167fddf252ad1be2c89b69c2b068fc378daa952ba7f163c4a11628f55a4df523b3ef60405160405180910390a45050565b600a80549050600b600083815260200190815260200160002081905550600a81908060018154018082558091505060019003906000526020600020016000909190919091505550565b600c60008373ffffffffffffffffffffffffffffffffffffffff1673ffffffffffffffffffffffffffffffffffffffff1681526020019081526020016000208190806001815401808255809150506001900390600052602060002001600090919091909150556001600c60008473ffffffffffffffffffffffffffffffffffffffff1673ffffffffffffffffffffffffffffffffffffffff16815260200190815260200160002080549050611bdf91906127d3565b600d6000838152602001908152602001600020819055505050565b505050565b816008600083815260200190815260200160002060006101000a81548173ffffffffffffffffffffffffffffffffffffffff021916908373ffffffffffffffffffffffffffffffffffffffff160217905550808273ffffffffffffffffffffffffffffffffffffffff16611c7283610ad1565b73ffffffffffffffffffffffffffffffffffffffff167f8c5be1e5ebec7d5bd14f71427d1e84f3dd0314c0f7b2291e5b200ac8c7c3b92560405160405180910390a45050565b611cd060018260000154611e6990919063ffffffff16565b816000018190555050565b6001816000016000828254611cf09190613267565b9250508190555050565b505050565b6000611d0a84611ec8565b15611e5c578373ffffffffffffffffffffffffffffffffffffffff1663150b7a02338786866040518563ffffffff1660e01b8152600401611d4e94939291906133ea565b6020604051808303816000875af1925050508015611d8a57506040513d601f19601f82011682018060405250810190611d87919061344b565b60015b611e0c573d8060008114611dba576040519150601f19603f3d011682016040523d82523d6000602084013e611dbf565b606091505b506000815103611e04576040517f08c379a0000000000000000000000000000000000000000000000000000000008152600401611dfb9061316e565b60405180910390fd5b805181602001fd5b63150b7a0260e01b7bffffffffffffffffffffffffffffffffffffffffffffffffffffffff1916817bffffffffffffffffffffffffffffffffffffffffffffffffffffffff191614915050611e61565b600190505b949350505050565b600082821115611eae576040517f08c379a0000000000000000000000000000000000000000000000000000000008152600401611ea5906134c4565b60405180910390fd5b60008284611ebc91906127d3565b90508091505092915050565b600080823b905060008163ffffffff1611915050919050565b828054611eed90612836565b90600052602060002090601f016020900481019282611f0f5760008555611f56565b82601f10611f2857805160ff1916838001178555611f56565b82800160010185558215611f56579182015b82811115611f55578251825591602001919060010190611f3a565b5b509050611f639190611f67565b5090565b5b80821115611f80576000816000905550600101611f68565b5090565b6000604051905090565b600080fd5b600080fd5b60007fffffffff0000000000000000000000000000000000000000000000000000000082169050919050565b611fcd81611f98565b8114611fd857600080fd5b50565b600081359050611fea81611fc4565b92915050565b60006020828403121561200657612005611f8e565b5b600061201484828501611fdb565b91505092915050565b60008115159050919050565b6120328161201d565b82525050565b600060208201905061204d6000830184612029565b92915050565b600080fd5b600080fd5b6000601f19601f8301169050919050565b7f4e487b7100000000000000000000000000000000000000000000000000000000600052604160045260246000fd5b6120a68261205d565b810181811067ffffffffffffffff821117156120c5576120c461206e565b5b80604052505050565b60006120d8611f84565b90506120e4828261209d565b919050565b600067ffffffffffffffff8211156121045761210361206e565b5b61210d8261205d565b9050602081019050919050565b82818337600083830152505050565b600061213c612137846120e9565b6120ce565b90508281526020810184848401111561215857612157612058565b5b61216384828561211a565b509392505050565b600082601f8301126121805761217f612053565b5b8135612190848260208601612129565b91505092915050565b600080600080608085870312156121b3576121b2611f8e565b5b600085013567ffffffffffffffff8111156121d1576121d0611f93565b5b6121dd8782880161216b565b945050602085013567ffffffffffffffff8111156121fe576121fd611f93565b5b61220a8782880161216b565b935050604085013567ffffffffffffffff81111561222b5761222a611f93565b5b6122378782880161216b565b925050606085013567ffffffffffffffff81111561225857612257611f93565b5b6122648782880161216b565b91505092959194509250565b600081519050919050565b600082825260208201905092915050565b60005b838110156122aa57808201518184015260208101905061228f565b838111156122b9576000848401525b50505050565b60006122ca82612270565b6122d4818561227b565b93506122e481856020860161228c565b6122ed8161205d565b840191505092915050565b6000602082019050818103600083015261231281846122bf565b905092915050565b6000819050919050565b61232d8161231a565b811461233857600080fd5b50565b60008135905061234a81612324565b92915050565b60006020828403121561236657612365611f8e565b5b60006123748482850161233b565b91505092915050565b600073ffffffffffffffffffffffffffffffffffffffff82169050919050565b60006123a88261237d565b9050919050565b6123b88161239d565b82525050565b60006020820190506123d360008301846123af565b92915050565b6123e28161239d565b81146123ed57600080fd5b50565b6000813590506123ff816123d9565b92915050565b6000806040838503121561241c5761241b611f8e565b5b600061242a858286016123f0565b925050602061243b8582860161233b565b9150509250929050565b61244e8161231a565b82525050565b60006020820190506124696000830184612445565b92915050565b60008060006060848603121561248857612487611f8e565b5b6000612496868287016123f0565b93505060206124a7868287016123f0565b92505060406124b88682870161233b565b9150509250925092565b6000602082840312156124d8576124d7611f8e565b5b60006124e6848285016123f0565b91505092915050565b6124f88161201d565b811461250357600080fd5b50565b600081359050612515816124ef565b92915050565b6000806040838503121561253257612531611f8e565b5b6000612540858286016123f0565b925050602061255185828601612506565b9150509250929050565b600067ffffffffffffffff8211156125765761257561206e565b5b61257f8261205d565b9050602081019050919050565b600061259f61259a8461255b565b6120ce565b9050828152602081018484840111156125bb576125ba612058565b5b6125c684828561211a565b509392505050565b600082601f8301126125e3576125e2612053565b5b81356125f384826020860161258c565b91505092915050565b6000806000806080858703121561261657612615611f8e565b5b6000612624878288016123f0565b9450506020612635878288016123f0565b93505060406126468782880161233b565b925050606085013567ffffffffffffffff81111561266757612666611f93565b5b612673878288016125ce565b91505092959194509250565b6000806040838503121561269657612695611f8e565b5b60006126a4858286016123f0565b92505060206126b5858286016123f0565b9150509250929050565b600081905092915050565b60006126d582612270565b6126df81856126bf565b93506126ef81856020860161228c565b80840191505092915050565b600061270782846126ca565b915081905092915050565b7f4572726f723a206b727970746f4269726420616c72656164792065786973747360008201527f2e00000000000000000000000000000000000000000000000000000000000000602082015250565b600061276e60218361227b565b915061277982612712565b604082019050919050565b6000602082019050818103600083015261279d81612761565b9050919050565b7f4e487b7100000000000000000000000000000000000000000000000000000000600052601160045260246000fd5b60006127de8261231a565b91506127e98361231a565b9250828210156127fc576127fb6127a4565b5b828203905092915050565b7f4e487b7100000000000000000000000000000000000000000000000000000000600052602260045260246000fd5b6000600282049050600182168061284e57607f821691505b60208210810361286157612860612807565b5b50919050565b7f4552433732313a20617070726f76656420717565727920666f72206e6f6e657860008201527f697374656e7420746f6b656e0000000000000000000000000000000000000000602082015250565b60006128c3602c8361227b565b91506128ce82612867565b604082019050919050565b600060208201905081810360008301526128f2816128b6565b9050919050565b7f4552433732313a20417070726f76616c20746f2063757272656e74206f776e6560008201527f7221000000000000000000000000000000000000000000000000000000000000602082015250565b600061295560228361227b565b9150612960826128f9565b604082019050919050565b6000602082019050818103600083015261298481612948565b9050919050565b7f4552433732313a20547279696e6720746f207472616e66657220746f6b656e2060008201527f7768696368206f776e657220646f6573206e6f74206f776e2100000000000000602082015250565b60006129e760398361227b565b91506129f28261298b565b604082019050919050565b60006020820190508181036000830152612a16816129da565b9050919050565b7f4552433732313a2043616e277420617070726f766520746f6b656e20746f207a60008201527f65726f2061646472657373000000000000000000000000000000000000000000602082015250565b6000612a79602b8361227b565b9150612a8482612a1d565b604082019050919050565b60006020820190508181036000830152612aa881612a6c565b9050919050565b7f4552433732313a20546f6b656e20646f6573206e6f742062656c6f6e6720746f60008201527f207468652063757272656e742063616c6c657221000000000000000000000000602082015250565b6000612b0b60348361227b565b9150612b1682612aaf565b604082019050919050565b60006020820190508181036000830152612b3a81612afe565b9050919050565b7f4552433732313a204f776e657220696e646578206973206f7574206f6620626f60008201527f756e647321000000000000000000000000000000000000000000000000000000602082015250565b6000612b9d60258361227b565b9150612ba882612b41565b604082019050919050565b60006020820190508181036000830152612bcc81612b90565b9050919050565b7f4e487b7100000000000000000000000000000000000000000000000000000000600052603260045260246000fd5b7f4552433732313a20476c6f62616c20746f6b656e20696e646578206973206f7560008201527f74206f6620626f756e6473210000000000000000000000000000000000000000602082015250565b6000612c5e602c8361227b565b9150612c6982612c02565b604082019050919050565b60006020820190508181036000830152612c8d81612c51565b9050919050565b7f4552433732313a20746f6b656e20717565727920666f72206e6f6e2d6578697360008201527f74656e74206f776e65722e000000000000000000000000000000000000000000602082015250565b6000612cf0602b8361227b565b9150612cfb82612c94565b604082019050919050565b60006020820190508181036000830152612d1f81612ce3565b9050919050565b7f4552433732313a206f776e657220717565727920666f72206e6f6e2d6578697360008201527f74656e7420746f6b656e2e000000000000000000000000000000000000000000602082015250565b6000612d82602b8361227b565b9150612d8d82612d26565b604082019050919050565b60006020820190508181036000830152612db181612d75565b9050919050565b7f4552433732313a207472616e736665722063616c6c6572206973206e6f74206f60008201527f776e6572206e6f7220617070726f766564000000000000000000000000000000602082015250565b6000612e1460318361227b565b9150612e1f82612db8565b604082019050919050565b60006020820190508181036000830152612e4381612e07565b9050919050565b6000612e5682856126ca565b9150612e6282846126ca565b91508190509392505050565b7f4552433732313a20546f6b656e20646f6573206e6f7420657869737421000000600082015250565b6000612ea4601d8361227b565b9150612eaf82612e6e565b602082019050919050565b60006020820190508181036000830152612ed381612e97565b9050919050565b7f4552433732313a207472616e736665722066726f6d20696e636f72726563742060008201527f6f776e6572000000000000000000000000000000000000000000000000000000602082015250565b6000612f3660258361227b565b9150612f4182612eda565b604082019050919050565b60006020820190508181036000830152612f6581612f29565b9050919050565b7f4552433732313a207472616e7366657220746f20746865207a65726f2061646460008201527f7265737300000000000000000000000000000000000000000000000000000000602082015250565b6000612fc860248361227b565b9150612fd382612f6c565b604082019050919050565b60006020820190508181036000830152612ff781612fbb565b9050919050565b7f4552433732313a20617070726f766520746f2063616c6c657200000000000000600082015250565b600061303460198361227b565b915061303f82612ffe565b602082019050919050565b6000602082019050818103600083015261306381613027565b9050919050565b7f4552433732313a206f70657261746f7220717565727920666f72206e6f6e657860008201527f697374656e7420746f6b656e0000000000000000000000000000000000000000602082015250565b60006130c6602c8361227b565b91506130d18261306a565b604082019050919050565b600060208201905081810360008301526130f5816130b9565b9050919050565b7f4552433732313a207472616e7366657220746f206e6f6e20455243373231526560008201527f63656976657220696d706c656d656e7465720000000000000000000000000000602082015250565b600061315860328361227b565b9150613163826130fc565b604082019050919050565b600060208201905081810360008301526131878161314b565b9050919050565b60006131998261231a565b91507fffffffffffffffffffffffffffffffffffffffffffffffffffffffffffffffff82036131cb576131ca6127a4565b5b600182019050919050565b7f4e487b7100000000000000000000000000000000000000000000000000000000600052601260045260246000fd5b60006132108261231a565b915061321b8361231a565b92508261322b5761322a6131d6565b5b828204905092915050565b60006132418261231a565b915061324c8361231a565b92508261325c5761325b6131d6565b5b828206905092915050565b60006132728261231a565b915061327d8361231a565b9250827fffffffffffffffffffffffffffffffffffffffffffffffffffffffffffffffff038211156132b2576132b16127a4565b5b828201905092915050565b7f4552433732313a206d696e74696e6720746f207a65726f206164647265737300600082015250565b60006132f3601f8361227b565b91506132fe826132bd565b602082019050919050565b60006020820190508181036000830152613322816132e6565b9050919050565b7f4552433732313a20746f6b656e20616c7265616479206d696e74656400000000600082015250565b600061335f601c8361227b565b915061336a82613329565b602082019050919050565b6000602082019050818103600083015261338e81613352565b9050919050565b600081519050919050565b600082825260208201905092915050565b60006133bc82613395565b6133c681856133a0565b93506133d681856020860161228c565b6133df8161205d565b840191505092915050565b60006080820190506133ff60008301876123af565b61340c60208301866123af565b6134196040830185612445565b818103606083015261342b81846133b1565b905095945050505050565b60008151905061344581611fc4565b92915050565b60006020828403121561346157613460611f8e565b5b600061346f84828501613436565b91505092915050565b7f536166654d6174683a205375627472616374696f6e206f766572666c6f770000600082015250565b60006134ae601e8361227b565b91506134b982613478565b602082019050919050565b600060208201905081810360008301526134dd816134a1565b905091905056fea264697066735822122016561dbe833336745cb1c6e7461e0d9e5bbef28ff03b968573bea347b78faf7464736f6c634300080d0033",
  "immutableReferences": {},
  "source": "// SPDX-License-Identifier: MIT\npragma solidity ^0.8.0;\n\nimport './ERC721Connector.sol';\n\ncontract KryptoBird is ERC721Connector {\n\n    string[] public kryptoBirdz;\n    mapping(string => bool) _kryptoBirdExists;\n\n    function mint(string memory _kryptoBird, string memory token_name, string memory token_description, string memory token_cost) public {\n\n        require(!_kryptoBirdExists[_kryptoBird], 'Error: kryptoBird already exists.');\n\n        //.push function is depricated uint256 _id = KryptoBirdz.push(_kryptoBird);\n        //.push no longer returns the length. it returns reference after version 6.\n        kryptoBirdz.push(_kryptoBird);\n        uint256 _id = kryptoBirdz.length - 1;\n        _mint(msg.sender, _id);\n        _setTokenName(_id, token_name);\n        _setTokenDescription(_id, token_description);\n        _setTokenCost(_id, token_cost);\n        _kryptoBirdExists[_kryptoBird] = true;\n    }\n\n    constructor() ERC721Connector('KryptoBird', 'KBIRDZ'){\n    }\n\n}",
  "sourcePath": "/home/m9/Documents/nft-marketplace-starter-kit/src/contracts/KryptoBirdz.sol",
  "compiler": {
    "name": "solc",
    "version": "0.8.13+commit.abaa5c0e.Emscripten.clang"
  },
  "schemaVersion": "3.4.7",
  "updatedAt": "2022-04-28T07:07:42.335Z",
  "networkType": "ethereum",
  "devdoc": {
    "kind": "dev",
    "methods": {
      "balanceOf(address)": {
        "details": "NFTs assigned to the zero address are considered invalid, and this  function throws for queries about the zero address.",
        "params": {
          "_owner": "An address for whom to query the balance"
        },
        "returns": {
          "_0": "The number of NFTs owned by `_owner`, possibly zero"
        }
      },
      "getApproved(uint256)": {
        "details": "See {IERC721-getApproved}."
      },
      "isApprovedForAll(address,address)": {
        "details": "See {IERC721-isApprovedForAll}."
      },
      "ownerOf(uint256)": {
        "details": "NFTs assigned to zero address are considered invalid, and queries  about them do throw.",
        "params": {
          "_tokenId": "The identifier for an NFT"
        },
        "returns": {
          "_0": "The address of the owner of the NFT"
        }
      },
      "safeTransferFrom(address,address,uint256)": {
        "details": "See {IERC721-safeTransferFrom}."
      },
      "safeTransferFrom(address,address,uint256,bytes)": {
        "details": "See {IERC721-safeTransferFrom}."
      },
      "setApprovalForAll(address,bool)": {
        "details": "See {IERC721-setApprovalForAll}."
      },
      "supportsInterface(bytes4)": {
        "details": "Interface identification is specified in ERC-165. This function  uses less than 30,000 gas.",
        "params": {
          "interfaceID": "The interface identifier, as specified in ERC-165"
        },
        "returns": {
          "_0": "`true` if the contract implements `interfaceID` and  `interfaceID` is not 0xffffffff, `false` otherwise"
        }
      },
      "tokenByIndex(uint256)": {
        "details": "Throws if `_index` >= `totalSupply()`.",
        "params": {
          "_index": "A counter less than `totalSupply()`"
        },
        "returns": {
          "_0": "The token identifier for the `_index`th NFT,  (sort order not specified)"
        }
      },
      "tokenOfOwnerByIndex(address,uint256)": {
        "details": "Throws if `_index` >= `balanceOf(_owner)` or if  `_owner` is the zero address, representing invalid NFTs.",
        "params": {
          "_index": "A counter less than `balanceOf(_owner)`",
          "_owner": "An address where we are interested in NFTs owned by them"
        },
        "returns": {
          "_0": "The token identifier for the `_index`th NFT assigned to `_owner`,   (sort order not specified)"
        }
      },
      "tokenURI(uint256)": {
        "details": "See {IERC721Metadata-tokenURI}."
      },
      "totalSupply()": {
        "returns": {
          "_0": "A count of valid NFTs tracked by this contract, where each one of  them has an assigned and queryable owner not equal to the zero address"
        }
      },
      "transferFrom(address,address,uint256)": {
        "details": "Throws unless `msg.sender` is the current owner, an authorized  operator, or the approved address for this NFT. Throws if `_from` is  not the current owner. Throws if `_to` is the zero address. Throws if  `_tokenId` is not a valid NFT.",
        "params": {
          "_from": "The current owner of the NFT",
          "_to": "The new owner",
          "_tokenId": "The NFT to transfer"
        }
      }
    },
    "version": 1
  },
  "userdoc": {
    "kind": "user",
    "methods": {
      "balanceOf(address)": {
        "notice": "Count all NFTs assigned to an owner"
      },
      "name()": {
        "notice": "A descriptive name for a collection of NFTs in this contract"
      },
      "ownerOf(uint256)": {
        "notice": "Find the owner of an NFT"
      },
      "supportsInterface(bytes4)": {
        "notice": "Query if a contract implements an interface"
      },
      "symbol()": {
        "notice": "An abbreviated name for NFTs in this contract"
      },
      "tokenByIndex(uint256)": {
        "notice": "Enumerate valid NFTs"
      },
      "tokenOfOwnerByIndex(address,uint256)": {
        "notice": "Enumerate NFTs assigned to an owner"
      },
      "totalSupply()": {
        "notice": "Count NFTs tracked by this contract"
      },
      "transferFrom(address,address,uint256)": {
        "notice": "Transfer ownership of an NFT -- THE CALLER IS RESPONSIBLE  TO CONFIRM THAT `_to` IS CAPABLE OF RECEIVING NFTS OR ELSE  THEY MAY BE PERMANENTLY LOST"
      }
    },
    "version": 1
  }
}